:100000000C94DA020C940B030C940B030C940B036A
:100010000C940B030C940B030C940B030C940B0328
:100020000C940B030C940B030C940B030C940B0318
:100030000C940B030C940B030C940B030C940B0308
:100040000C940B030C94183F0C940B030C940B03AF
:100050000C940B030C940B030C940B030C94874C23
:100060000C940B030C94FF410C9434420C940B033E
:100070000C940B030C940B030C940B030C940B03C8
:100080000C94463F0C940B030C940B030C940B0341
:100090000C9495420C94CA420C940B030C940B03E1
:1000A0000C940B030C940B030C94743F0C940B03F3
:1000B0000C940B030C940B030C940B030C94A23FB5
:1000C0000C940B030C940B030C940B030C940B0378
:1000D0000C940B030C940B030C940B030C940B0368
:1000E0000C940B03E74BEC4BF14BFB4B054C7E4C5C
:1000F0000F4C174C1F4C294C334C3D4C4C4C564C20
:100100007E4C604C6A4C744CC74DCA4DB94DBD4DC8
:10011000C34D014ECE4DD24DD84DDC4DE04DE64D98
:10012000EA4DEE4D014EF44DF84DFC4D0800000037
:10013000BE922449123EABAAAA2ABECDCCCC4C3EDC
:1001400000000080BEABAAAAAA3E00000000BF00CB
:100150000000803F0000000000084178D3BB4387C7
:10016000D1133D190E3CC3BD4282AD2B3E68EC82DB
:1001700076BED98FE1A93E4C80EFFFBE01C4FF7F60
:100180003F00000000000C94F4420C94A8130C945F
:10019000F6350C94B3450C94F44D0C94A5450C9491
:1001A000FB4B0C94054C0C94D24D0C94EA370C94F8
:1001B000C6450C94744C0C943F410C94F14B0C9438
:1001C00054460C94334C0C94F9350C949E450C9485
:1001D000014E0C94EC4B0C94EE350C94604C0C944A
:1001E000C34D0C94EE4D0C94FC4D0C94ED360C94D8
:1001F000C53A0C94DC4D0C94E64D0C946A4C0C946E
:100200001F4C0C940F370C94BD4D0C9432460C943B
:10021000FE420C94D6450C94174C0C944C4C0C9408
:1002200020370C94C74D0C9440410C940F4C0C9407
:10023000294C0C94CE4D0C94E74B0C94EA4D0C9445
:10024000F9360C9442360C9414490C94CA4D0C9413
:10025000564C0C947E4C0C945E420C942B430C94A4
:1002600068420C94BA350C943D4C0C94D84D0C94C7
:10027000E04D0C94FA350C94B94D0C94F84D005E99
:10028000BCE2613FDD83C29C7E20A3FD1F419DC374
:10029000217FFCA2401E5F01E3BD3E6082DC237D26
:1002A0009FC1421CFEA0E1BF5D0380DE3C62BEE058
:1002B000025CDF81633D7C22C09E1D43A1FF461886
:1002C000FAA427799BC584DA3866E5BB5907DB8534
:1002D0006739BAE406581947A5FB7826C49A653BE6
:1002E000D987045AB8E6A7F91B45C6987A24F8A618
:1002F000441A99C7257B3A6486D85B05E7B98CD246
:10030000306EEDB3510F4E10F2AC2F7193CD114FF3
:10031000ADF3702ECC92D38D6F31B2EC0E50AFF1A5
:10032000134DCE90722C6D33D18F0C52B0EE326CD7
:100330008ED0530DEFB1F0AE4C1291CF2D73CA9405
:100340007628ABF517490856B4EA6937D58B5709B3
:10035000EBB536688AD495CB2977F4AA4816E9B765
:10036000550B88D6346A2B7597C94A14F6A8742A97
:10037000C896154BA9F7B6E80A54D7896B35000023
:100380000A0B02090C0D0E0807030401000000000F
:10039000000000000000000000000000000000005D
:1003A000000000000000000000001211100000001A
:1003B000000000000000000000000000000000003D
:1003C00000000000000000000000010210202008D2
:1003D00008102040102040800201020108040201A0
:1003E000010204081020408080402010080402010F
:1003F0008004020180402010080402010804020168
:1004000001020408102040800102040810204080EE
:1004100004081020048005050505070508080808DC
:10042000020202020A0A080804040404010101018C
:100430000101010103030303030303030407070787
:100440000C0C0C0C0C0C0C0C02020202060606062C
:10045000060606060B0B0B0B0B0B0B0B0A0A0A0A04
:100460000808000020002300260029002C002F008F
:100470003200000100000301060109010000220012
:10048000250028002B002E0031003400020100005E
:10049000050108010B0100002100240027002A00AB
:1004A0002D003000330001010000040107010A01A2
:1004B00000407A10F35A00A0724E18090010A5D41B
:1004C000E80000E87648170000E40B54020000CA78
:1004D0009A3B000000E1F5050000809698000000BE
:1004E00040420F000000A08601000000102700001D
:1004F0000000E803000000006400000000000A00A3
:10050000000000000100000000002C76D888DC67A5
:100510004F0823DFC1DFAE59E1B1B796E5E3E453FD
:10052000C63AE651997696E8E6C28426EB898C9B1A
:1005300062ED407C6FFCEFBC9C9F40F2BAA56FA5BA
:10054000F490055A2AF75C936B6CF9676DC11BFC3C
:10055000E0E40D47FEF520E6B500D0ED902E030057
:10056000943577050080841E080000204E0A0000A4
:1005700000C80C333333330F986E12831141EF8D63
:100580002114893BE65516CFFEE6DB18D1844B38A3
:100590001BF77C1D901DA4BBE424203284725E22D4
:1005A0008100C9F124ECA1E53D27A813BA356842C2
:1005B000FE42EE3511241FBECFEFD1E2DEBFCDBF2C
:1005C00000E00CBF15E0A0E0B2E0E0EAFFEA00E0E6
:1005D0000BBF02C007900D92AE38B107D9F725E1E5
:1005E000AEE8B5E001C01D92A239B207E1F712E012
:1005F000C9EDD2E000E006C021970109802FFE017D
:100600000E945552C53DD10780E00807A9F70E9416
:100610008A4B0C94BE570C940000CF92DF92EF925D
:10062000FF920F931F93CF93DF93EC010E94D14C65
:100630006B017C01CE0164E670E00E9400528B01E8
:10064000C0E0D0E00E94D14CDC01CB018C199D09A7
:10065000AE09BF0984369105A105B10598F30E9442
:10066000B82D0E94D14C6B017C012196C017D10797
:100670004CF3DF91CF911F910F91FF90EF90DF909E
:10068000CF9008951F93CF93DF93182FEB0177FF3F
:1006900002C0C0E0D0E061E086E40E943E4E612FDF
:1006A00070E080E39FE00E949A40BE01C937D10507
:1006B00014F068E770E080E39FE00E94E3408EEE74
:1006C00092E00E940D0380E39FE00E94A04060E062
:1006D00086E4DF91CF911F910C943E4E8091E90DFD
:1006E0002091ED0D811108C08091500E811104C040
:1006F0008091EF0E843049F5211103C068E770E066
:1007000002C060E070E08DE10E9442038091EC0D38
:10071000811103C068E770E002C060E070E08CE126
:100720000E9442038091EB0D811103C068E770E0E5
:1007300002C060E070E08BE10E9442038091EA0D0C
:10074000882391F160E070E031C0822F90E05091F9
:10075000EC0D511101964091EB0D41110196309134
:10076000EA0D311101968230910509F442C02CF452
:10077000009759F00197E1F008958330910509F44D
:1007800059C0049709F47AC0089568E770E08DE1D4
:100790000E94420368E770E08CE10E94420368E730
:1007A00070E08BE10E94420368E770E08AE198C044
:1007B000211102C068E701C067E360933E0E51114A
:1007C00002C088E701C087E380933D0E411102C05B
:1007D00088E701C087E380933C0E311102C088E7AF
:1007E00001C087E380933B0E87E380933A0E8DE24E
:1007F00041C0211102C068E701C062E360933E0E70
:10080000511102C088E701C082E380933D0E41117F
:1008100002C088E701C082E380933C0E311102C020
:1008200088E701C082E380933B0E82E380933A0E17
:1008300087E320C0211102C068E701C067E360932D
:100840003E0E511102C088E701C087E380933D0E40
:10085000411102C088E701C087E380933C0E31114B
:1008600002C088E701C087E380933B0E87E3809353
:100870003A0E88E78093390E70E013C088E28093C7
:100880003E0E8DE280933D0E82E380933C0E97E313
:1008900090933B0E80933A0E88E78093390E68E27E
:1008A00070E08DE10E94420360913D0E70E08CE1AA
:1008B0000E94420360913C0E70E08BE10E94420373
:1008C00060913B0E70E08AE10E94420360913A0E13
:1008D00070E089E10E9442036091390E70E088E186
:1008E0000C944203CF93DF93D82F8091500E811147
:1008F00010C08091190F843061F0D63151F480918D
:10090000E80D882331F08091E70D882311F0C6E4CB
:1009100001C0C4E161E086E40E943E4E6D2F70E0AC
:1009200080E39FE00E949A406C2F70E080E39FE09C
:100930000E94E3408EEE92E00E940D0380E39FE070
:100940000E94A04060E086E4DF91CF910C943E4E7F
:10095000CF93C82F61E086E40E943E4E6C2F70E07A
:1009600080E39FE00E949A4068E770E080E39FE0A8
:100970000E94E3408EEE92E00E940D0380E39FE030
:100980000E94A04060E086E4CF910C943E4E83E24A
:100990009FE00C944C414F925F926F927F928F92A6
:1009A0009F92AF92BF92CF92DF92EF92FF92CF933E
:1009B00080918F058A3010F58F5F80938F0561E0FD
:1009C00087E00E943E4E60E372E08BE491E10E947A
:1009D00062494AE050E060918F058BE491E1CF914C
:1009E000FF90EF90DF90CF90BF90AF909F908F904F
:1009F0007F906F905F904F900C947C4A80918E0511
:100A00008E31C0F58F5F80938E0562E472E08BE4D7
:100A100091E10E9462494AE050E060918E058BE4CA
:100A200091E10E947C4A60E087E00E943E4E88E1AE
:100A30000E947204C1E0C093EF0D89E10E9472042C
:100A4000C093E70D82E00E947022C093E50DC09331
:100A50003F0E8091250E9091260EA091270EB09109
:100A6000280E8093F90A9093FA0AA093FB0AB09398
:100A7000FC0A74C1C090250ED090260EE090270E7F
:100A8000F090280E80901D0E90901E0EA0901F0ECC
:100A9000B090200EA5019401C701B6010E94F65046
:100AA00087FD43C060E087E00E943E4E1092F10D4A
:100AB00081E08093110E20E030E0A90160911B02DB
:100AC00070911C0280911D0290911E020E94564F4F
:100AD00087FF10C08091F80D9091F90DA091FA0D4B
:100AE000B091FB0D80931B0290931C02A0931D02FA
:100AF000B0931E0210928F0510928E058091D10D39
:100B000081112CC180914F0E811128C1CF91FF908E
:100B1000EF90DF90CF90BF90AF909F908F907F909D
:100B20006F905F904F900C94052B2DEC3CEC4CE4B7
:100B30005FE3C501B4010E944B519B01AC01C701A9
:100B4000B6010E94F65087FDEBC020E030E040E0A7
:100B500050E4C501B4010E94D24E9B01AC01C70113
:100B6000B6010E94F65087FDDBC0C501B4010E94AA
:100B700003512B013C01C701B6010E9403514B01F7
:100B80005C019B01AC01C701B6010E944B51A5015C
:100B900094010E944B519B01AC01C301B2010E9420
:100BA0005B4F905820E030E048EC52E40E944B51FB
:100BB0000E943F4F6B017C0120E030E0A9010E94C0
:100BC000F65018165CF420E030E040E050E4C70135
:100BD000B6010E94F65018165CF018C020E030E014
:100BE00040E050ECC701B6010E94564F87FF0EC08F
:100BF00020E030E0A901C701B6010E94F6501816A6
:100C000054F0F7FAF094F7F8F09405C0C12CD12C09
:100C1000E12C80E4F82E60E572E08BE491E10E9423
:100C2000624922E030E0B701A6018BE491E10E9425
:100C3000754B6BEC72E08BE491E10E9462494AE0F3
:100C400050E0609191058BE491E10E94754A6BEC54
:100C500072E08BE491E10E9462494AE050E06091C9
:100C600090058BE491E10E94754A6BEC72E08BE495
:100C700091E10E94624987E00E946E4E4AE050E096
:100C8000BC018BE491E10E943F4A20E030E040E06B
:100C900051E4C701B6010E94564F87FF3CC08091C6
:100CA0009105883040F080919005803220F01092BC
:100CB0009105109290056091910570E080E090E0C0
:100CC0000E9405504B015C01A701960160E070E0B5
:100CD00080E091E40E94D24E9B01AC01C501B401B9
:100CE0000E94F65087FD05C080919005837061E0F9
:100CF00009F060E087E00E943E4E80919005982FB9
:100D0000937029F4909191059F5F909391058F5F67
:100D10008093900523C061E087E00E943E4E1AC098
:100D200087E00E946E4E892BC9F461E087E00E9443
:100D30003E4E88E10E94A8041092EF0D89E10E94C6
:100D4000A8041092E70D82E00E9474221092E50D33
:100D500010923F0E1092910510929005CF91FF9046
:100D6000EF90DF90CF90BF90AF909F908F907F904B
:100D70006F905F904F9008952F923F924F925F92A5
:100D80006F927F928F929F92AF92BF92CF92DF929B
:100D9000EF92FF920F931F93CF93DF93CDB7DEB700
:100DA00029970FB6F894DEBF0FBECDBF0091170F85
:100DB0001091180F101611060CF040C08091D10D43
:100DC00081113CC08091F40D9091F50D1816190613
:100DD000F4F46091130F7091140F60177107B9F458
:100DE000072E000C880B990B0E9405509B01AC014B
:100DF0006091FC0D7091FD0D8091FE0D9091FF0DA5
:100E00000E94564F682F661F6627661F66C1809036
:100E1000FC0D9090FD0DA090FE0DB090FF0DB8015F
:100E2000012E000C880B990B0E9405509B01AC0110
:100E3000C501B4010E94F65087FD0CC060E08DE052
:100E40000E943E4E1092E90A1092EA0A81E08093D5
:100E5000100246C1E090110FF090120FC8018E19D8
:100E60009F09BC01990F880B990B0E94055020E047
:100E700030E040E251E40E945B4F2B013C01609363
:100E8000E40A7093E50A8093E60A9093E70AB701B3
:100E9000FF0C880B990B0E9405509B01AC01C5010A
:100EA000B4010E94D24E20E030E040E251E40E94C2
:100EB0005B4F6B017C016093E00A7093E10A8093C1
:100EC000E20A9093E30A2DEC3CEC4CE45FE3C301AF
:100ED000B2010E944B519B01AC01C701B6010E94B7
:100EE000F65018160CF0F8C020E030E040E85FE360
:100EF000C301B2010E94D24E9B01AC01C701B601F1
:100F00000E94F65087FDE8C0C301B2010E94035160
:100F10002B013C01C701B6010E9403514B015C014A
:100F20009B01AC01C701B6010E944B51A501940180
:100F30000E944B519B01AC01C301B2010E945B4F67
:100F4000905820E030E048EC52E40E944B510E945F
:100F50003F4F6B017C0120E030E0A9010E94F65078
:100F600026013701181624F077FA709477F87094F8
:100F700010911002612F70E080E090E00E94055017
:100F80004B015C019B01AC01C301B2010E94F65010
:100F90001816FCF420E030E0A901C701B6010E9458
:100FA000F65018165CF420E030E040E051E4C70150
:100FB000B6010E94564F87FD6EC55EC520E030E049
:100FC00040E051ECC701B6010E94F65018167CF0C3
:100FD00053C5612F70E080E090E00E94035020E054
:100FE00030E040E051E40E94564F87FF45C520E0C5
:100FF00030E0A901C701B6010E94F650181624F08E
:10100000F7FAF094F7F8F094A5019401C701B6013E
:101010000E94F650181644F0612F70E080E090E0D6
:101020000E9403506B017C01C092DC0AD092DD0A61
:10103000E092DE0AF092DF0A20E030E040E051E486
:10104000C701B6010E94564F18160CF445C0A50101
:101050009401C701B6010E94564F811111C08091C1
:10106000EA0A8F5F8093EA0A8C3350F01F5F109377
:1010700010021092EA0A193018F088E080931002EA
:101080008091E90A811103C088E08093E90A6091A8
:10109000E90A70E080E090E00E9405504B015C019D
:1010A000A701960160E070E080E091E40E94D24EDA
:1010B0009B01AC0111E0C501B4010E94F650181665
:1010C0000CF010E0612F8DE00E943E4E8091E90A05
:1010D00081508093E90A04C061E08DE00E943E4E99
:1010E0008DE00E946E4E892B09F00EC10091150F04
:1010F0001091160F20911A0F101611060CF0A5C0B2
:10110000273009F4A9C08091110E811180C080910F
:101110001A0E90911B0E8A3591050CF0CEC4892BC6
:1011200021F460E084E00E943E4E8091E70D811141
:101130000DC089E10E94720411E01093E70D82E076
:101140000E9470221093E50D10933F0E80911A0EAD
:1011500090911B0E019690931B0E80931A0E0E9485
:101160008122182F80911A0E90911B0E8A359105BD
:10117000CCF58091EF0D811106C088E10E947204C8
:1011800081E08093EF0D112309F497C460E084E0BF
:101190000E943E4E0E946A2464E672E0CE010196EF
:1011A0000E949A43CE0101960E94E229CE01019647
:1011B0000E942C4389E10E94A8041092E70D82E06E
:1011C0000E9474221092E50D10923F0E88E10E9459
:1011D000A8041092EF0D8AE590E090931B0E809387
:1011E0001A0E6BC489E10E94A8041092E70D82E0F8
:1011F0000E9474221092E50D88E10E94A8041092CA
:10120000EF0D81E08093110E0E94332756C42A30DF
:1012100009F453C48091D10D81114FC4B801110F4D
:10122000880B990B0E9405509B01AC016091F80D51
:101230007091F90D8091FA0D9091FB0D0E94564F1F
:10124000682F661F6627661F50C0273029F08091DF
:10125000190F833009F005C48091D10D811101C4AB
:10126000F090DB0AF11010C06091F80D7091F90D4B
:101270008091FA0D9091FB0D29870E94CD4F7093BC
:10128000D80A6093D70A298581E08F0D8093DB0A05
:101290008D3390F080910E0290910F02181619066E
:1012A0004CF48091D90A9091DA0A01969093DA0A67
:1012B0008093D90A1092DB0A8091190F833031F59F
:1012C00080910E0E8230A9F48091ED0D81110CC039
:1012D0008091EC0D811108C08091EB0D811104C04B
:1012E0008091EA0D882329F061E084E00E943E4E5F
:1012F000E4C384E08093E80A8091DB0A66E00E9400
:10130000F45161E0943088F360E0EFCF273009F0CA
:10131000D4C380910E0E811120C0B801110F880B2B
:10132000990B0E9405509B01AC016091F80D7091E2
:10133000F90D8091FA0D9091FB0D0E94F65087FDFA
:1013400006C081E080930E0E86E08093E80A8FEF5E
:101350009FEF90930F0280930E0260910E027091A6
:101360000F021616170654F58091D90A9091DA0AE1
:101370000C97BCF4072E000C880B990B0E940550AB
:101380009B01AC016091F80D7091F90D8091FA0DFF
:101390009091FB0D0E94564F682F661F6627661FAF
:1013A0000EC084E08093E80A8091DB0A66E00E9428
:1013B000F45161E0943018F060E001C061E084E035
:1013C0000E943E4E80910E0E813009F07BC2E0906B
:1013D0000E02F0900F021E141F043CF48091D90AF3
:1013E0009091DA0A0C970CF46DC280915E0A8C33EE
:1013F00059F4EFE5FAE082819381819391932AE099
:10140000E53DF207C1F703C08F5F80935E0A7090DD
:101410005E0A072D10E0000F111F035A154F60914F
:10142000F80D7091F90D8091FA0D9091FB0D0E94CD
:10143000CD4FF801718360833FE5C32E3AE0D32E90
:10144000812C912C540110E01715A1F0F601619147
:1014500071916F01072E000C880B990B0E940550AB
:101460009B01AC01C501B4010E94D34E4B015C014C
:101470001F5FEACF612F70E080E090E00E94035090
:101480009B01AC01C501B4010E945B4F4B015C01A3
:101490006093560A7093570A8093580A9093590A9A
:1014A00020E030E040E85FEB60910A0270910B02AF
:1014B00080910C0290910D020E94564F811108C03C
:1014C00080920A0290920B02A0920C02B0920D023E
:1014D00020910A0230910B0240910C0250910D02B2
:1014E000C501B4010E94D24E2B013C012DEC3CEC15
:1014F0004CE45EEB0E94564F18164CF44092520A90
:101500005092530A6092540A7092550A08C0109281
:10151000520A1092530A1092540A1092550A80925D
:101520000A0290920B02A0920C02B0920D028091DE
:101530008107843B79F4E2E8F7E084819581A68114
:10154000B78181939193A193B1932AE0EE34F2078E
:10155000A1F703C08F5F8093810790908107C92C0A
:10156000D12CF601EE0FFF1FEE0FFF1FE258F84FD0
:101570008091520A9091530AA091540AB091550A51
:1015800080839183A283B38392E8A92E97E0B92E3A
:10159000412C512C320100E010E00C151D057CF4AB
:1015A000F50121913191419151915F01C301B20146
:1015B0000E94D34E2B013C010F5F1F4FEECF409294
:1015C0005A0A50925B0A60925C0A70925D0A692D19
:1015D00070E080E090E00E9403509B01AC01C301E9
:1015E000B2010E945B4F2B013C0160937D07709319
:1015F0007E0780937F079093800720E030E040E8EB
:101600005FEB609106027091070280910802909151
:1016100009020E94564F811108C040920602509262
:10162000070260920802709209022091060230912E
:1016300007024091080250910902C301B2010E94C1
:10164000D24E4B015C016093790770937A078093C7
:101650007B0790937C0740920602509207026092AB
:101660000802709209021E141F045CF001E010E0F1
:1016700020E030E0A9010E94564F882321F000E0CD
:1016800002C000E010E000939605109397051E1429
:101690001F0464F401E020E030E0A901C501B401B9
:1016A0000E94564F18166CF400E00BC020E030E0AA
:1016B000A901C501B4010E94564F082F001F002741
:1016C000001F10E0109395050093940580919805F4
:1016D000883709F056C0C0909605D090970589E9E3
:1016E00095E098878F83EF81F885448055806680E8
:1016F00077804192519261927192F887EF831E1424
:101700001F047CF033243394212C20E030E0A90125
:10171000C301B2010E94564F8111312C832D922DAD
:1017200002C080E090E0C80ED91E1E141F046CF4A5
:101730003324339420E030E0A901C301B2010E94B8
:10174000564F18166CF4312C0BC020E030E0A90184
:10175000C301B2010E94564F382E331C3324331C70
:10176000030D111D8F8198858557974009F0BBCFD8
:10177000D0929705C0929605109395050093940515
:1017800003C08F5F809398051091980524E0129F05
:10179000F0011124EB56FA4F80829182A282B3822B
:1017A00060919405709195056C33710504F5072ED1
:1017B000000C880B990B0E94055020E030E044E3B8
:1017C00052E40E94F65087FD20C06091960570910A
:1017D0009705072E000C880B990B0E94055020E0FE
:1017E00030E040EF51E40E94F65087FD0EC01837FC
:1017F00060F08091920590919305019690939305E6
:1018000080939205F7FE17C005C0109293051092C1
:10181000920511C0CD977CF06091F80D7091F90D93
:101820008091FA0D9091FB0D0E94CD4F70930F02A5
:1018300060930E0261C08091920590919305893763
:101840009105B4F48091D90A9091DA0A4F9784F403
:10185000F7FE52C08091C50D9091C60DA091C70DA5
:10186000B091C80D81319E40A105B1050CF444C072
:101870001092DA0A1092D90A8FEF9FEF90930F021D
:1018800080930E0210925E0A1092810710929805C2
:1018900080E090E0A0E8BFEB80930A0290930B02F7
:1018A000A0930C02B0930D0280930602909307025E
:1018B000A0930802B093090282E080930E0E0E946A
:1018C000052B1AC010925E0A10928107109298059B
:1018D00080E090E0A0E8BFEB80930A0290930B02B7
:1018E000A0930C02B0930D0280930602909307021E
:1018F000A0930802B09309024AE050E060915E0AAA
:101900008BE491E10E94754A6BEC72E08BE491E10B
:101910000E9462494091560A5091570A6091580AB4
:101920007091590A22E030E08BE491E10E94754BFE
:101930006BEC72E08BE491E10E9462494091520AA3
:101940005091530A6091540A7091550A22E030E098
:101950008BE491E10E94754B6BEC72E08BE491E1BA
:101960000E9462494AE050E0609181078BE491E176
:101970000E94754A6BEC72E08BE491E10E9462492F
:1019800040917D0750917E0760917F07709180079D
:1019900022E030E08BE491E10E94754B6BEC72E049
:1019A0008BE491E10E9462494091790750917A0756
:1019B00060917B0770917C0722E030E08BE491E13D
:1019C0000E94754B6BEC72E08BE491E10E946249DE
:1019D0004AE050E0609198058BE491E10E94754ADD
:1019E0006BEC72E08BE491E10E9462496091940596
:1019F000709195054AE050E08BE491E10E94384AED
:101A00006BEC72E08BE491E10E9462496091920577
:101A1000709193054AE050E08BE491E10E94384ACE
:101A20006BEC72E08BE491E10E94624960910E02DE
:101A300070910F024AE050E08BE491E10E94384A35
:101A40006BEC72E08BE491E10E9462496091D90AEB
:101A50007091DA0A4AE050E08BE491E10E943F4A3B
:101A60002CC060E084E00E943E4E1092DB0A10928F
:101A7000E80A10920E0E21C080E090E0A0E0B1E4F0
:101A80008093DC0A9093DD0AA093DE0AB093DF0A0C
:101A90006C017D01DCCAA5019401C701B6010E9459
:101AA000F65018160CF0B8CAC092DC0AD092DD0AC3
:101AB000E092DE0AF092DF0ACACA29960FB6F894BD
:101AC000DEBF0FBECDBFDF91CF911F910F91FF9071
:101AD000EF90DF90CF90BF90AF909F908F907F90CE
:101AE0006F905F904F903F902F9008958F929F92AC
:101AF000AF92BF92CF92DF92EF92FF92CF93DF939C
:101B00008091100E8F5F8093100E69E672E08BE477
:101B100091E10E9462494AE050E06091100E8BE42E
:101B200091E10E947C4A6AE772E08BE491E10E94B5
:101B300062494091210E5091220E6091230E7091C6
:101B4000240E22E030E08BE491E10E94774B9091EB
:101B50000F0E8091100E992309F49EC0833008F473
:101B6000ACC01092100E10920F0E20E030E0A901D0
:101B70006091210E7091220E8091230E9091240E7F
:101B80000E94564F811112C06091310E7091320E39
:101B90008091330E9091340E0E9405506093210E77
:101BA0007093220E8093230E9093240E8090210E2A
:101BB0009090220EA090230EB090240E6091310ED2
:101BC0007091320E8091330E9091340E0E94055028
:101BD000A50194010E94D24E6B017C01A5019401E4
:101BE0000E945B4F20E030E040E251E40E944B5104
:101BF0000E94CD4F25E0269FE001279FD00D1124A4
:101C000067E972E08BE491E10E94624922E030E0F2
:101C1000B701A6018BE491E10E94754B6BEC72E079
:101C20008BE491E10E9462494AE050E0BE018BE4FE
:101C300091E10E943F4A20E030E0A901C701B601CE
:101C40000E94F650181634F48C2F8A5B8093190288
:101C500084E105C08C2F8C5E8093190286E48C1B76
:101C600080931A0260911A0270E086E10E9442039A
:101C70006091190270E088E10E94420385E00E94B1
:101C80007022C1E0C093E60D1092EC0A82E00E943F
:101C90007022C093E50D11C08F3078F01092100EB5
:101CA00081E080930F0E85E00E9474221092E60D71
:101CB00082E00E9474221092E50DDF91CF91FF9097
:101CC000EF90DF90CF90BF90AF909F908F9008954E
:101CD000CF93C82F89E10E94A8041092E70D82E0FB
:101CE0000E9474221092E50D10923F0E88E10E942E
:101CF000A8041092EF0DC11116C08091EF0E86302E
:101D000059F486E10E94A8041092F00D87E10E9428
:101D1000A8041092E80D07C0853029F488E40E94D9
:101D2000A8041092E90D81E080931C0E10921B0E06
:101D300010921A0E8091310E9091320EA091330EB6
:101D4000B091340E8093350E9093360EA093370EDB
:101D5000B093380ECF910C9433278F929F92AF920D
:101D6000BF92CF92DF92EF92FF920F931F93CF9388
:101D7000DF9300D000D0CDB7DEB78091D50E90E0D4
:101D800090931802809317020E94D14C28EEC22E25
:101D900023E0D22EE12CF12CA70196010E941452CF
:101DA0008091C90D9091CA0DA091CB0DB091CC0D31
:101DB00049015A01881A990AAA0ABB0A8092CD0DD4
:101DC0009092CE0DA092CF0DB092D00D0E94D14C2A
:101DD000A70196010E9414528091C10D9091C20DED
:101DE000A091C30DB091C40D79018A01E81AF90AD6
:101DF0000A0B1B0BE092C50DF092C60D0093C70DA8
:101E00001093C80D8091D60E882309F47EC080916E
:101E10001C0E81117AC08091EF0E8550823020F027
:101E200081E080931C0E76C480911A0E90911B0E57
:101E3000892BB1F460E087E00E943E4E88E10E9469
:101E4000720411E01093EF0D89E10E947204109367
:101E5000E70D82E00E9470221093E50D10933F0E73
:101E600080911A0E90911B0E019690931B0E8093F9
:101E70001A0E0E948122182F20911A0E30911B0EEB
:101E80008091EF0D2A3531056CF4811106C088E18F
:101E90000E94720481E08093EF0D112309F43AC48B
:101EA00081E030C0882329F088E10E94A8041092C4
:101EB000EF0D8091EF0E8630A9F48091F00D811125
:101EC00006C086E10E94720481E08093F00D80914B
:101ED000E80D811113C087E10E94720481E08093B4
:101EE000E80D0CC0853051F48091E90D811106C0D8
:101EF00088E40E94720481E08093E90D112309F4C3
:101F000009C480E00E94680E05C48091F20D882308
:101F100009F4CBC00E94D14C28EE33E040E050E001
:101F20000E9414522093C10D3093C20D4093C30DF3
:101F30005093C40D1092C50D1092C60D1092C70D8E
:101F40001092C80D8091EA0E9091EB0E9093F70DD0
:101F50008093F60D8091170F9091180F9093140FA6
:101F60008093130F0E9433278091ED0D882311F089
:101F700081E011C08091EC0D882311F082E00BC04C
:101F80008091EB0D882311F083E005C08091EA0D6C
:101F9000882319F084E0809313028091EE0E8093E1
:101FA0001A0F9091EF0E9093190F883001F130F4D1
:101FB000813009F047C01092FD0A44C0893041F1D8
:101FC0008A3009F03FC081E08093110E1092F20A2E
:101FD0001092F10A1092ED0A1092EE0A1092EF0A96
:101FE0001092F00A61E086E00E943E4E2BC0809184
:101FF000310E9091320EA091330EB091340E809339
:10200000350E9093360EA093370EB093380E1AC04B
:1020100020911D0E30911E0E40911F0E5091200EEA
:102020006091250E7091260E8091270E9091280EBA
:102030000E94D24E60931D0E70931E0E80931F0E51
:102040009093200E80E090E0A0E8BFEB8093210EFB
:102050009093220EA093230EB093240E8091190F1B
:10206000823001F58091E60D8823E1F08091EF0D3B
:102070008823C1F08091E50D8823A1F08091F00DB7
:10208000882381F01092100E10920F0E1092210EE4
:102090001092220E1092230E1092240E1092EC0A2F
:1020A0001092EB0A1092F20D35C380911A0F813015
:1020B00009F04EC08091FD0A811110C08091250E5B
:1020C0009091260EA091270EB091280E8093F90AC8
:1020D0009093FA0AA093FB0AB093FC0A0E94CB04E7
:1020E0008091FD0A8F5F8093FD0A8A3589F520E093
:1020F00030E040E85FE36091F90A7091FA0A80915C
:10210000FB0A9091FC0A0E94D34E9B01AC016091A6
:10211000250E7091260E8091270E9091280E0E9418
:10212000564F87FF15C069EA72E0CE0101960E9402
:102130009A43CE0101960E94E229CE0101960E94A7
:102140002C431092FD0A8091F30D81110E946A24A4
:1021500080911A0F8230C9F46091170F7091180F97
:10216000072E000C880B990B0E9405509B01AC01B7
:102170006091FC0D7091FD0D8091FE0D9091FF0D11
:102180000E94F65087FD35C022C08330A9F46091CB
:10219000150F7091160F072E000C880B990B0E94DB
:1021A00005509B01AC016091F80D7091F90D809183
:1021B000FA0D9091FB0DE4CF843019F40E947A223D
:1021C00004C08530B1F40E948122882391F00E94DE
:1021D000052B0E94D14C28EE33E040E050E00E94F5
:1021E00014522093C10D3093C20D4093C30D5093F0
:1021F000C40D80911A0F863009F093C18091E90DCA
:10220000811158C18091ED0D81110DC08091EC0DAF
:10221000811141C08091EB0D81113DC08091EA0D8B
:10222000811139C047C1809113028130A1F580919D
:10223000E50D882381F18091110260913E0E04E149
:10224000809F600D112460933E0E70E08DE10E942E
:10225000420380911102909112029195819591090A
:10226000909312028093110297FF15C08091EC0D9C
:10227000882311F082E00DC08091EB0D882311F0CE
:1022800083E007C08091EA0D882311F084E001C04B
:1022900085E0809313028091EC0D882391F1809169
:1022A0001302823071F58091E50D882351F1809100
:1022B000110260913D0E14E1819F600D1124609325
:1022C0003D0E70E08CE10E944203809111029091DA
:1022D00012029195819591099093120280931102B7
:1022E00097FF0FC08091EB0D882311F083E007C0AA
:1022F0008091EA0D882311F084E001C085E080938D
:1023000013028091EB0D882361F1809113028330D9
:1023100041F58091E50D882321F1809111026091B2
:102320003C0E94E1899F600D112460933C0E70E097
:102330008BE10E94420380911102909112029195CB
:1023400081959109909312028093110297FF09C021
:102350008091EA0D882311F084E001C085E080932C
:1023600013028091EA0D882331F1809113028430A9
:1023700011F58091E50D8823F1F0809111026091B3
:102380003B0E04E1809F600D112460933B0E70E0D2
:102390008AE10E944203809111029091120291956C
:1023A00081959109909312028093110297FF03C0C7
:1023B00085E08093130280911302853009F03EC0BE
:1023C0008091E50D8823D1F18091110260913A0E40
:1023D00014E1819F600D112460933A0E70E089E151
:1023E0000E94420380911102909112029195819571
:1023F0009109909312028093110297FF1FC0809160
:10240000390E843B11F086E017C08091ED0D8823D2
:1024100011F081E011C08091EC0D882311F082E071
:102420000BC08091EB0D882311F083E005C08091F3
:10243000EA0D882319F084E080931302809113023F
:102440008630C1F58091E50D8823A1F180911102BC
:102450006091390E94E1899F600D11246093390ECB
:1024600070E088E10E944203809111029091120273
:10247000919581959109909312028093110297FF93
:1024800019C08091ED0D882311F081E011C0809179
:10249000EC0D882311F082E00BC08091EB0D8823B6
:1024A00011F083E005C08091EA0D882319F084E0E3
:1024B0008093130220E030E0A9016091210E709119
:1024C000220E8091230E9091240E0E94F65087FFD9
:1024D0000E94760D4091C50D5091C60D6091C70DBB
:1024E0007091C80D8091EA0E9091EB0EA091EC0EC8
:1024F000B091ED0E481759076A077B0794F00E94C8
:10250000052B0E94D14C28EE33E040E050E00E94C1
:1025100014522093C10D3093C20D4093C30D5093BC
:10252000C40D80911A0F8930C9F420911D0E30918D
:102530001E0E40911F0E5091200E6091250E70913D
:10254000260E8091270E9091280E0E94564F87FDEF
:10255000DFC00E9481228111DBC0DCC08830C9F459
:102560004091C50D5091C60D6091C70D7091C80D79
:102570008091EA0E9091EB0EA091EC0EB091ED0ED1
:10258000481759076A077B070CF4C4C00E947626D7
:10259000C1C08A3009F0BEC08091F70A9091F80A54
:1025A00097FD54C0009781F44091F80D5091F90DBA
:1025B0006091FA0D7091FB0D4093F30A5093F40A69
:1025C0006093F50A7093F60A01969093F80A809347
:1025D000F70A4E97DCF120E030E040EA50E46091E9
:1025E000F30A7091F40A8091F50A9091F60A0E941C
:1025F000D24E9B01AC016091F80D7091F90D809164
:10260000FA0D9091FB0D0E94F65087FD19C06EEAFD
:1026100072E0CE0101960E949A43CE0101960E947B
:10262000E229CE0101960E942C431092F80A1092E2
:10263000F70A8091F30D882349F00E946A2406C0AE
:102640008FEF9FEF9093F80A8093F70AC090F80DF0
:10265000D090F90DE090FA0DF090FB0D6091150F00
:102660007091160F072E000C880B990B0E940550D5
:102670009B01AC01C701B6010E94564F18168CF59C
:102680008091F10A9091F20A009741F4C092ED0A0C
:10269000D092EE0AE092EF0AF092F00A0196843BA3
:1026A00091052CF49093F20A8093F10A33C01092B2
:1026B000F20A1092F10A20E030E040E251E4609129
:1026C000ED0A7091EE0A8091EF0A9091F00A0E9453
:1026D000D24E9B01AC01C701B6010E94F65087FDA6
:1026E00019C060E086E00E943E4E0E94052B0E94C9
:1026F000D14C28EE33E040E050E00E941452209389
:10270000C10D3093C20D4093C30D5093C40D02C050
:102710000E94052B26960FB6F894DEBF0FBECDBFE4
:10272000DF91CF911F910F91FF90EF90DF90CF90AD
:10273000BF90AF909F908F90089598E088E10FB67A
:10274000F894A895809360000FBE90936000FFCF2F
:102750008EEF9BE00C943D37CF92DF92EF92FF9289
:102760000F931F93CF93DF93CDB7DEB766970FB666
:10277000F894DEBF0FBECDBF8EEF9BE00E9487387E
:10278000029721F08EEF9BE00E9421378BE491E1CC
:102790000E949E451816190694F48BE491E10E945C
:1027A0009E45AC016EEF7AE08BE491E10E94EE4829
:1027B000482F6EEF7AE08EEF9BE00E9427388EEF75
:1027C0009BE00E9487388C018230910511F40C94B3
:1027D000351F049711F40C94351F8EEF9BE00E9477
:1027E0008238F82E8BE491E10E94324664E28BE459
:1027F00091E10E945446602F8BE491E10E9454467F
:102800006F2D8BE491E10E9454466AE28BE491E1E2
:102810000E9493498BE491E10E94324601301105F8
:1028200011F00C94351F80911402F81611F40C94D9
:10283000351FF092140263E273E0CE010D960E9400
:102840009A438EEF9BE00E94F936182F682FCE0135
:1028500001960E942F44BE016F5F7F4FCE010D96FF
:102860000E945C45CE0101960E942C43103511F068
:102870000C94311F41E060E070E08EEF9BE00E941D
:10288000DF478B014AE0CE0101960E947544BE01EC
:102890006F5F7F4FCE010D960E945C45CE01019681
:1028A0000E942C438091CD0E9091CE0E892B31F059
:1028B00063EB72E089EC9EE00E946345BE01635FBA
:1028C0007F4F89EC9EE00E945C450838110509F4B1
:1028D000D5C70CF08DC00937110509F483C70CF07A
:1028E00043C00137110509F45FC71CF50736110510
:1028F00009F420C354F40F34110509F43CC2003527
:10290000110509F44CC20C94311F0F36110509F45E
:102910003FC70CF044C70E36110511F00C94311F5F
:1029200061E087E00E943E4E81E08093F10D0C94BF
:10293000311F0537110509F446C75CF4033711054B
:1029400009F437C70CF03AC781E08093EF0D88E1B6
:1029500052C70737110509F43BC70CF03EC781E0A9
:102960008093EC0D8CE147C70038110509F460C76E
:102970001CF50C37110509F441C77CF40A37110521
:1029800009F435C70B37110511F00C94311F109263
:10299000EA0D6DE770E00C94331D0E37110509F454
:1029A00036C70CF03DC785E00E9474221092E60DF8
:1029B0001092400E0C94311F0438110509F448C7D9
:1029C00044F40238110509F436C70CF03BC760E047
:1029D00030C70638110509F442C70CF047C76DE748
:1029E00070E088E40E9442031092E90D0C94311FBC
:1029F000063A110511F40C94C81D0CF0DFC00B3918
:102A0000110509F4DAC70CF06AC00739110509F499
:102A100044C7ACF50938110509F437C70639110563
:102A200011F00C94311F41E060E070E08EEF9BE00C
:102A30000E94DF477093180F6093170F4AE0CE0192
:102A400007960E9475446BEC72E0CE0101960E94DD
:102A50009A43BE01695F7F4FCE0101960E94724585
:102A6000BC0189EC9EE00E945C45CE0101960E946B
:102A70002C43CE0107960E942C430C94311F093938
:102A8000110509F444C70CF06DC741E060E070E047
:102A90008EEF9BE00E94DF476B017C014AE0CE0194
:102AA00007960E9475446BEC72E0CE0101960E947D
:102AB0009A43BE01695F7F4FCE0101960E94724525
:102AC000BC0189EC9EE00E945C45CE0101960E940B
:102AD0002C43CE0107960E942C43B60116C70F392E
:102AE000110509F4EDC784F50D39110509F492C7F4
:102AF0000CF0BBC741E060E070E08EEF9BE00E940D
:102B0000DF476B017C014AE0CE0107960E947544C5
:102B10006BEC72E0CE0101960E949A43BE01695FA0
:102B20007F4FCE0101960E947245BC0189EC9EE068
:102B30000E945C45CE0101960E942C43CE0107966F
:102B40000E942C43B60164C7023A110509F4E3C799
:102B5000033A110511F40C94B61D013A110511F058
:102B60000C94311F41E060E070E08EEF9BE00E942A
:102B7000DF476B017C014AE0CE0107960E94754455
:102B80006BEC72E0CE0101960E949A43BE01695F30
:102B90007F4FCE0101960E947245BC0189EC9EE0F8
:102BA0000E945C45CE0101960E942C43CE010796FF
:102BB0000E942C43B60189E40C94F21D0B3C1105D4
:102BC00011F40C94871E0CF081C00A3A110511F41F
:102BD0000C944B1E9CF5083A110511F40C94F51D4C
:102BE00014F00C94201E41E060E070E08EEF9BE05A
:102BF0000E94DF476B017C014AE0CE0107960E94EC
:102C000075446BEC72E0CE0101960E949A43BE01BE
:102C1000695F7F4FCE0101960E947245BC0189EC2D
:102C20009EE00E945C45CE0101960E942C43CE019D
:102C300007960E942C43B60189E1D4C7093C1105CF
:102C400011F40C94781E14F00C94801E083C1105AD
:102C500011F00C94311F0E94762611E01093F30DB1
:102C60001092D10D0E94D14C28EEC22E23E0D22E1C
:102C7000E12CF12CA70196010E9414522093C90D5A
:102C80003093CA0D4093CB0D5093CC0D0E94D14C84
:102C9000A70196010E9414522093C10D3093C20DDA
:102CA0004093C30D5093C40D1093F20D1092110E6A
:102CB00080E090E0A0E8BFEB80931B0290931C02A1
:102CC000A0931D02B0931E020C94311F053883E0BF
:102CD000180709F448C07CF40D3C110511F40C945C
:102CE0009D1E14F40C948A1E0438134011F00C94A9
:102CF000311F0E949D13063E83E0180711F40C94C7
:102D0000DC1E073EE3E01E0711F40C94E41E0638B7
:102D1000134011F00C94311F60E086E40E943E4E97
:102D200060E088E20E943E4E61E089E20E943E4EF1
:102D300060E088E00E943E4E60E08DE20E943E4EE0
:102D400060E085E00E943E4E60E082E00E943E4EE0
:102D500060E08DE00E943E4E60E084E00E943E4EC6
:102D60006AEB72E002C065EB72E083E39FE00E94D1
:102D700081490C94311F10924F0E8091310E909129
:102D8000320EA091330EB091340E8093350E909395
:102D9000360EA093370EB093380E0C94311F8091ED
:102DA000190F823011F41092190F41E060E070E0C9
:102DB0008EEF9BE00E94584860932B0270932C0288
:102DC00080932D0290932E0241E060E070E08EEF40
:102DD0009BE00E94584860932702709328028093DA
:102DE000290290932A0241E060E070E08EEF9BE0C0
:102DF0000E94584860931F0F7093200F8093210FFB
:102E00009093220F41E060E070E08EEF9BE00E9423
:102E1000584860931B0F70931C0F80931D0F909365
:102E20001E0F6BEC72E0CE010D960E94184440918B
:102E30002B0250912C0260912D0270912E022AE0FB
:102E4000CE0107960E94CE44BE01695F7F4FCE013E
:102E500001960E9403446BEC72E0CE0101960E9441
:102E60008545BC01CE010D960E945C45CE010196C0
:102E70000E942C43CE0107960E942C4340912702CA
:102E8000509128026091290270912A022AE0CE0115
:102E900007960E94CE44BE01695F7F4FCE01019626
:102EA0000E9403446BEC72E0CE0101960E948545BE
:102EB000BC01CE010D960E945C45CE0101960E9498
:102EC0002C43CE0107960E942C4340911F0F509136
:102ED000200F6091210F7091220F2AE0CE010796FA
:102EE0000E94CE44BE01695F7F4FCE0101960E94D1
:102EF00003446BEC72E0CE0101960E948545BC0153
:102F0000CE010D960E945C45CE0101960E942C4395
:102F1000CE0107960E942C4340911B0F50911C0F2D
:102F200060911D0F70911E0F2AE0CE0101960E9444
:102F3000CE441BC4E0901802E094EE1CEE24EE1C7C
:102F4000F12C41E060E070E08EEF9BE00E94DF47F3
:102F50008DE18E9D80018F9D100D11240B52114F1C
:102F6000F801608341E060E070E08EEF9BE00E943A
:102F7000DF4721E0672B682B692B09F420E0F8017B
:102F8000218341E060E070E08EEF9BE00E94DF472C
:102F90002DE12E9DF0012F9DF00D1124EB52F14FEC
:102FA00021E0672B682B692B09F420E0228341E0A4
:102FB00060E070E08EEF9BE00E94DF472DE12E9DE8
:102FC000F0012F9DF00D1124EB52F14F21E0672B02
:102FD000682B692B09F420E0238341E060E070E076
:102FE0008EEF9BE00E94DF472DE12E9D80012F9DFB
:102FF000100D11240B52114FF8017583648341E0C9
:1030000060E070E08EEF9BE00E94DF47F80177837D
:10301000668341E060E070E08EEF9BE00E94DF4756
:1030200021E0672B682B692B09F420E0F801208749
:1030300041E060E070E08EEF9BE00E94DF472DE111
:103040002E9DF0012F9DF00D1124EB52F14F21E048
:10305000672B682B692B09F420E0218741E060E0B1
:1030600070E08EEF9BE00E94DF472DE12E9DF00186
:103070002F9DF00D1124EB52F14F21E0672B682BAF
:10308000692B09F420E0228741E060E070E08EEFD8
:103090009BE00E94DF472DE12E9DF0012F9DF00D5A
:1030A0001124EB52F14F21E0672B682B692B09F4B7
:1030B00020E0238741E060E070E08EEF9BE00E941B
:1030C000DF472DE12E9DF0012F9DF00D1124EB52D5
:1030D000F14F21E0672B682B692B09F420E024874E
:1030E00041E060E070E08EEF9BE00E94DF478DE101
:1030F0008E9D80018F9D100D11240B52114FF801F0
:10310000658741E060E070E08EEF9BE00E94DF4762
:1031100021E0672B682B692B09F420E0F801268752
:1031200041E060E070E08EEF9BE00E94DF478DE1C0
:103130008E9D80018F9D100D11240B52114FF801AF
:10314000678741E060E070E08EEF9BE00E94DF4720
:10315000F801608B41E060E070E08EEF9BE00E9440
:10316000DF47F801618B728B838B948B41E060E0C9
:1031700070E08EEF9BE00E94DF47F801658B768B55
:10318000878B908F41E060E070E08EEF9BE00E94C3
:10319000DF47F801618F41E060E070E08EEF9BE077
:1031A0000E94DF47F801628F41E060E070E08EEF3F
:1031B0009BE00E94DF4721E0672B682B692B09F415
:1031C00020E0F801238F41E060E070E08EEF9BE0AB
:1031D0000E94DF472DE12E9DF0012F9DF00D11245F
:1031E000EB52F14F21E0672B682B692B09F420E0AB
:1031F000248F6BEC72E0CE010D960E9418448DE195
:103200008E9D80018F9D100D11240B52114F4AE0AD
:10321000F8016081CE0107960E944844BE01695FB3
:103220007F4FCE0101960E9403446BEC72E0CE0109
:1032300001960E948545BC01CE010D960E945C4519
:10324000CE0101960E942C43CE0107960E942C438A
:10325000F801618170E04AE0CE0107960E94754452
:10326000BE01695F7F4FCE0101960E9403446BEC63
:1032700072E0CE0101960E948545BC01CE010D96FB
:103280000E945C45CE0101960E942C43CE01079618
:103290000E942C43F801628170E04AE0CE0107965B
:1032A0000E947544BE01695F7F4FCE0101960E9466
:1032B00003446BEC72E0CE0101960E948545BC018F
:1032C000CE010D960E945C45CE0101960E942C43D2
:1032D000CE0107960E942C43F801638170E04AE01A
:1032E000CE0107960E947544BE01695F7F4FCE01F3
:1032F00001960E9403446BEC72E0CE0101960E949D
:103300008545BC01CE010D960E945C45CE0101961B
:103310000E942C43CE0107960E942C43F801648141
:1033200075814AE0CE0107960E947544BE01695F2F
:103330007F4FCE0101960E9403446BEC72E0CE01F8
:1033400001960E948545BC01CE010D960E945C4508
:10335000CE0101960E942C43CE0107960E942C4379
:10336000F801668177814AE0CE0107960E94754494
:10337000BE01695F7F4FCE0101960E9403446BEC52
:1033800072E0CE0101960E948545BC01CE010D96EA
:103390000E945C45CE0101960E942C43CE01079607
:1033A0000E942C43F801608570E04AE0CE01079648
:1033B0000E947544BE01695F7F4FCE0101960E9455
:1033C00003446BEC72E0CE0101960E948545BC017E
:1033D000CE010D960E945C45CE0101960E942C43C1
:1033E000CE0107960E942C43F801618570E04AE007
:1033F000CE0107960E947544BE01695F7F4FCE01E2
:1034000001960E9403446BEC72E0CE0101960E948B
:103410008545BC01CE010D960E945C45CE0101960A
:103420000E942C43CE0107960E942C43F80162852E
:1034300070E04AE0CE0107960E947544BE01695FC4
:103440007F4FCE0101960E9403446BEC72E0CE01E7
:1034500001960E948545BC01CE010D960E945C45F7
:10346000CE0101960E942C43CE0107960E942C4368
:10347000F801638570E04AE0CE0107960E9475442A
:10348000BE01695F7F4FCE0101960E9403446BEC41
:1034900072E0CE0101960E948545BC01CE010D96D9
:1034A0000E945C45CE0101960E942C43CE010796F6
:1034B0000E942C43F801648570E04AE0CE01079633
:1034C0000E947544BE01695F7F4FCE0101960E9444
:1034D00003446BEC72E0CE0101960E948545BC016D
:1034E000CE010D960E945C45CE0101960E942C43B0
:1034F000CE0107960E942C434AE0F8016585CE0173
:1035000007960E944844BE01695F7F4FCE01019635
:103510000E9403446BEC72E0CE0101960E94854547
:10352000BC01CE010D960E945C45CE0101960E9421
:103530002C43CE0107960E942C43F801668570E06B
:103540004AE0CE0107960E947544BE01695F7F4F35
:10355000CE0101960E9403446BEC72E0CE0101960D
:103560000E948545BC01CE010D960E945C45CE01AE
:1035700001960E942C43CE0107960E942C434AE0FC
:10358000F8016785CE0107960E944844BE01695F35
:103590007F4FCE0101960E9403446BEC72E0CE0196
:1035A00001960E948545BC01CE010D960E945C45A6
:1035B000CE0101960E942C43CE0107960E942C4317
:1035C0004AE0F8016089CE0107960E944844BE0196
:1035D000695F7F4FCE0101960E9403446BEC72E05D
:1035E000CE0101960E948545BC01CE010D960E9438
:1035F0005C45CE0101960E942C43CE0107960E94A5
:103600002C43F80141895289638974892AE0CE01EB
:1036100007960E94A144BE01695F7F4FCE010196CB
:103620000E9403446BEC72E0CE0101960E94854536
:10363000BC01CE010D960E945C45CE0101960E9410
:103640002C43CE0107960E942C43F80145895689E8
:103650006789708D2AE0CE0107960E94A144BE01C1
:10366000695F7F4FCE0101960E9403446BEC72E0CC
:10367000CE0101960E948545BC01CE010D960E94A7
:103680005C45CE0101960E942C43CE0107960E9414
:103690002C434AE0F801618DCE0107960E94484410
:1036A000BE01695F7F4FCE0101960E9403446BEC1F
:1036B00072E0CE0101960E948545BC01CE010D96B7
:1036C0000E945C45CE0101960E942C43CE010796D4
:1036D0000E942C434AE0F801628DCE0107960E94B9
:1036E0004844BE01695F7F4FCE0101960E940344AA
:1036F0006BEC72E0CE0101960E948545BC01CE01C3
:103700000D960E945C45CE0101960E942C43CE018D
:1037100007960E942C43F801638D70E04AE0CE01C9
:1037200007960E947544BE01695F7F4FCE010196E6
:103730000E9403446BEC72E0CE0101960E94854525
:10374000BC01CE010D960E945C45CE0101960E94FF
:103750002C43CE0107960E942C43F801648D70E043
:103760004AE0CE0101960E947544BE016F5F7F4F13
:10377000CE010D960E945C45CE0101960E942C431D
:10378000BE01635F7F4F89EC9EE00E945C4569C388
:1037900060E087E00E943E4E1092F10D62C381E02E
:1037A0008093F00D86E127C01092F00D6DE770E078
:1037B000ACC01092EF0D6DE770E0D2C081E0809355
:1037C000ED0D8DE118C01092ED0D6DE770E0F3C0C6
:1037D0001092EC0D6DE770E019C181E08093EB0D64
:1037E0008BE109C01092EB0D6DE770E011C181E033
:1037F0008093EA0D8AE10E94720433C385E00E943F
:10380000702281E08093E60D8093400E2AC382E00F
:103810000E94702281E08093E50D80933F0E21C3CA
:1038200082E00E9474221092E50D10923F0E19C39F
:1038300061E086E0BEC289E40E94720481E0809368
:10384000EE0D0FC36DE770E089E40E94420307C3E9
:1038500088E40E94720481E08093E90D02C387E14D
:103860000E94720481E08093E80DFBC26DE770E076
:1038700087E10E9442031092E80DF3C289E10E94A1
:10388000720481E08093E70DECC26DE770E089E19E
:103890000E9442031092E70DE4C241E060E070E054
:1038A0008EEF9BE00E94DF477093160F6093150F19
:1038B0004AE0CE0107960E9475446BEC72E0CE019F
:1038C00001960E949A43BE01695F7F4FCE01019627
:1038D0000E947245BC0189EC9EE00E945C45CE01CD
:1038E00001960E942C43CE0107960E942C438091A2
:1038F000150F9091160F1816190624F481E0809385
:10390000110EAFC21092110EACC286E16BC141E044
:1039100060E070E08EEF9BE00E94DF476B017C016E
:103920004AE0CE0107960E9475446BEC72E0CE012E
:1039300001960E949A43BE01695F7F4FCE010196B6
:103940000E947245BC0189EC9EE00E945C45CE015C
:1039500001960E942C43CE0107960E942C43B6018B
:1039600088E140C141E060E070E08EEF9BE00E94A2
:10397000DF476B017C014AE0CE0107960E94754447
:103980006BEC72E0CE0101960E949A43BE01695F22
:103990007F4FCE0101960E947245BC0189EC9EE0EA
:1039A0000E945C45CE0101960E942C43CE010796F1
:1039B0000E942C43B6018DE115C141E060E070E04A
:1039C0008EEF9BE00E94DF476B017C014AE0CE0155
:1039D00007960E9475446BEC72E0CE0101960E943E
:1039E0009A43BE01695F7F4FCE0101960E947245E6
:1039F000BC0189EC9EE00E945C45CE0101960E94CC
:103A00002C43CE0107960E942C43B6018CE1EAC0FC
:103A10008BE1E8C041E060E070E08EEF9BE00E9447
:103A2000DF476B017C014AE0CE0107960E94754496
:103A30006BEC72E0CE0101960E949A43BE01695F71
:103A40007F4FCE0101960E947245BC0189EC9EE039
:103A50000E945C45CE0101960E942C43CE01079640
:103A60000E942C43B6018AE1BDC041E060E070E0F5
:103A70008EEF9BE00E94DF476B017C014AE0CE01A4
:103A800007960E9475446BEC72E0CE0101960E948D
:103A90009A43BE01695F7F4FCE0101960E94724535
:103AA000BC0189EC9EE00E945C45CE0101960E941B
:103AB0002C43CE0107960E942C43B60185E015C128
:103AC00041E060E070E08EEF9BE00E94DF476B0119
:103AD0007C014AE0CE0107960E9475446BEC72E0CF
:103AE000CE0101960E949A43BE01695F7F4FCE01CD
:103AF00001960E947245BC0189EC9EE00E945C45E3
:103B0000CE0101960E942C43CE0107960E942C43C1
:103B1000B60182E0EAC041E060E070E08EEF9BE039
:103B20000E94DF476B017C014AE0CE0107960E94AC
:103B300075446BEC72E0CE0101960E949A43BE017F
:103B4000695F7F4FCE0101960E947245BC0189ECEE
:103B50009EE00E945C45CE0101960E942C43CE015E
:103B600007960E942C43B60188E43CC041E060E027
:103B700070E08EEF9BE00E94DF470E94055060934B
:103B80001D0E70931E0E80931F0E9093200E69C120
:103B900041E060E070E08EEF9BE00E94DF476B0148
:103BA0007C014AE0CE0107960E9475446BEC72E0FE
:103BB000CE0101960E949A43BE01695F7F4FCE01FC
:103BC00001960E947245BC0189EC9EE00E945C4512
:103BD000CE0101960E942C43CE0107960E942C43F1
:103BE000B60187E10E9442033CC141E060E070E021
:103BF0008EEF9BE00E94DF476B017C014AE0CE0123
:103C000007960E9475446BEC72E0CE0101960E940B
:103C10009A43BE01695F7F4FCE0101960E947245B3
:103C2000BC0189EC9EE00E945C45CE0101960E9499
:103C30002C43CE0107960E942C43B60188E055C064
:103C400041E060E070E08EEF9BE00E94DF476B0197
:103C50007C014AE0CE0107960E9475446BEC72E04D
:103C6000CE0101960E949A43BE01695F7F4FCE014B
:103C700001960E947245BC0189EC9EE00E945C4561
:103C8000CE0101960E942C43CE0107960E942C4340
:103C9000B6018DE22AC041E060E070E08EEF9BE06B
:103CA0000E94DF476B017C014AE0CE0107960E942B
:103CB00075446BEC72E0CE0101960E949A43BE01FE
:103CC000695F7F4FCE0101960E947245BC0189EC6D
:103CD0009EE00E945C45CE0101960E942C43CE01DD
:103CE00007960E942C43B6018EE20E94BE4BB9C0DB
:103CF0008091F30D882309F4B4C00E946A24B1C0F6
:103D00008091F30D8111ADC00E946E25AAC00E9462
:103D1000EB28A7C00E94052B0E94D14C28EE33E06F
:103D200040E050E00E9414522093C10D3093C20D28
:103D30004093C30D5093C40D94C041E060E070E027
:103D40008EEF9BE00E94DF478B014AE0CE01079691
:103D50000E9475446BEC72E0CE0101960E949A437A
:103D6000BE01695F7F4FCE0101960E947245BC0182
:103D700089EC9EE00E945C45CE0101960E942C4396
:103D8000CE0107960E942C4361E0012B09F460E00C
:103D90006093500E8091F30D811163C088E00E9402
:103DA0003E4E6091500E8DE20E943E4E6091500E4C
:103DB0008EE20E943E4E55C041E060E070E08EEF22
:103DC0009BE00E94DF474DC041E060E070E08EEF75
:103DD0009BE00E94DF471092F30D1092D10D6B8B88
:103DE0007C8B8D8B9E8B0E9476260E94DA28109207
:103DF000F20D1092110E10921A0F1092190F6B897A
:103E00007C89161617066CF586E10E9472041092E2
:103E1000F00D87E10E9472041092E80D88E10E9483
:103E200072041092EF0D89E10E9472041092E70D66
:103E30008DE10E9472041092ED0D8CE10E947204DB
:103E40001092EC0D8BE10E9472041092EB0D8AE14E
:103E50000E9472041092EA0D89E40E94720410928A
:103E6000EE0DCE010D960E942C4366960FB6F89487
:103E7000DEBF0FBECDBFDF91CF911F910F91FF909D
:103E8000EF90DF90CF9008958F929F92AF92BF9264
:103E9000CF92DF92EF92FF920F931F93CF93DF9316
:103EA00000D000D0CDB7DEB78091E60D882309F4AD
:103EB000E2C080911C0D853089F48091230D8093A0
:103EC000220D8091240D8093230D8091250D8093E8
:103ED000240D8091260D8093250D03C08F5F809364
:103EE0001C0D6091830D7091840D80E090E00E9424
:103EF00003506B017C018091810D9091820DBC017A
:103F000080E090E00E940350A70196010E945B4F61
:103F10004B015C016093470E7093480E8093490EED
:103F200090934A0E60917D0D70917E0D80917F0D72
:103F30009091800D0E940350A70196010E945B4F53
:103F40006B017C016093230270932402809325020D
:103F50009093260220E030E0A9010E94F650181646
:103F60007CF5A7019601C501B4010E945B4F20E0DA
:103F700030E04AE754E40E944B516B017C0120E0A1
:103F800030E0A9010E94F65020E030E040E05FE31D
:103F900087FD05C0C701B6010E94D34E04C0C7010A
:103FA000B6010E94D24E0E94CD4F0E94055020E0E3
:103FB00030E04AE754E40E945B4F6B017C0103C090
:103FC000C12CD12C76016FEB72E08BE491E10E9461
:103FD00062492AE0B701A601CE0101960E94CE44B3
:103FE000BE016F5F7F4F8BE491E10E946F49CE016C
:103FF00001960E942C43B0901C0D0B2D10E0015037
:1040000011092FE832EC45EF5CE3C701B6010E94CD
:10401000F65087FD0EC02DEC3CEC4CEC5DE3C70187
:10402000B6010E94F6508095881F8827881F8F5FF1
:1040300001C080E0F801EE5DF24F808384E08B15D3
:10404000E8F442E25DE0FA0120E081E09191911113
:1040500005C02F5F91E0223008F090E0899F802D0D
:1040600011249E2F941B9B1588F3882349F08530DB
:1040700048F012E008C010921C0D02C01FEF03C0F0
:1040800010E001C011E08091400E882309F450C077
:1040900080911602181791F08091160D81110EC0B3
:1040A0008091180D843038F0109316021092180D7C
:1040B00010921A0D03C08F5F8093180D8091160225
:1040C000813099F18230E1F580911A0D853199F4B2
:1040D0008091140D833018F01092140D13E010929B
:1040E000160D8FEF80931A0D85E00E94702281E0FB
:1040F0008093E60D14C0823191F481E08093160D17
:104100008091140D8F5F8093140D8091E60D8823AC
:1041100031F085E00E9474221092E60D10E080914B
:104120001A0D8F5F80931A0D0BC01092140D08C0EA
:104130001092160D1092140D1092180D10921A0D67
:104140008091500E811122C08091190F8230F1F0C0
:104150008430E1F08091E80D111110C08823B1F096
:104160008091EF0D882391F08091E90D81110EC0AF
:1041700087E10E94A8041092E80D08C0811106C0D2
:1041800087E10E94720481E08093E80D812F2696DA
:104190000FB6F894DEBF0FBECDBFDF91CF911F9158
:1041A0000F91FF90EF90DF90CF90BF90AF909F90D6
:1041B0008F9008958F929F92AF92BF92CF92DF928D
:1041C000EF92FF920F931F93CF93DF9300D000D015
:1041D000CDB7DEB78091E50D882309F4E2C0809168
:1041E0001B0D853089F480911E0D80931D0D8091EB
:1041F0001F0D80931E0D8091200D80931F0D8091C7
:10420000210D8093200D03C08F5F80931B0D609163
:104210007B0D70917C0D80E090E00E9403506B015B
:104220007C018091790D90917A0DBC0180E090E045
:104230000E940350A70196010E945B4F4B015C0155
:104240006093430E7093440E8093450E9093460EF8
:104250006091750D7091760D8091770D9091780D2C
:104260000E940350A70196010E945B4F6B017C01E5
:1042700060931F0270932002809321029093220288
:1042800020E030E0A9010E94F65018167CF5A70145
:104290009601C501B4010E945B4F20E030E04AE77F
:1042A00054E40E944B516B017C0120E030E0A901F5
:1042B0000E94F65020E030E040E05FE387FD05C05B
:1042C000C701B6010E94D34E04C0C701B6010E94C7
:1042D000D24E0E94CD4F0E94055020E030E04AE7C8
:1042E00054E40E945B4F6B017C0103C0C12CD12CB4
:1042F00076016DEC72E08BE491E10E9462492AE064
:10430000B701A601CE0101960E94CE44BE016F5FA7
:104310007F4F8BE491E10E946F49CE0101960E948C
:104320002C43B0901B0D0B2D10E0015011092FE80C
:1043300032EC45EF5CE3C701B6010E94F65087FD01
:104340000EC02DEC3CEC4CEC5DE3C701B6010E94C5
:10435000F6508095881F8827881F8F5F01C080E0F6
:10436000F801E35EF24F808384E08B15E8F44DE1C1
:104370005DE0FA0120E081E09191911105C02F5F8D
:1043800091E0223008F090E0899F802D11249E2F2B
:10439000941B9B1588F3882349F0853048F012E080
:1043A00008C010921B0D02C01FEF03C010E001C037
:1043B00011E080913F0E882309F450C080911502CE
:1043C000181791F08091150D81110EC08091170D75
:1043D000843038F0109315021092170D1092190DB9
:1043E00003C08F5F8093170D80911502813099F182
:1043F0008230E1F58091190D853199F48091130D8A
:10440000833018F01092130D13E01092150D8FEFFA
:104410008093190D82E00E94702281E08093E50D67
:1044200014C0823191F481E08093150D8091130DB9
:104430008F5F8093130D8091E50D882331F082E02A
:104440000E9474221092E50D10E08091190D8F5F8B
:104450008093190D0BC01092130D08C01092150D0A
:104460001092130D1092170D1092190D8091500E8D
:10447000811122C08091190F8230F1F08430E1F077
:104480008091E70D111110C08823B1F08091F00DDB
:10449000882391F08091E90D81110EC089E10E947D
:1044A000A8041092E70D08C0811106C089E10E949E
:1044B000720481E08093E70D812F26960FB6F89461
:1044C000DEBF0FBECDBFDF91CF911F910F91FF9047
:1044D000EF90DF90CF90BF90AF909F908F90089516
:1044E0006FEF70E00C94BE4B60E070E00C94BE4B3C
:1044F0000C94BE4B81E09091420E933009F080E025
:10450000089581E09091410E933009F080E0089584
:10451000CF93DF93EC0163E273E00E949A4363E27E
:1045200073E0CE0106960E949A4363E273E0CE01E7
:104530000C960E949A4363E273E0CE0142960E9479
:104540009A4363E273E0CE0148960E949A4363E285
:1045500073E0CE014E960E949A4363E273E0CE016F
:1045600084960E949A4363E273E0CE018A960E9489
:104570009A4363E273E0CE01C0960E949A4363E2DD
:1045800073E0CE01C6960E949A4363E273E0CE01C7
:10459000CC960E949A4363E273E0CE018E5B9F4FFC
:1045A0000E949A4363E273E0CE01885B9F4F0E94B2
:1045B0009A4363E273E0CE01825B9F4F0E949A436D
:1045C00063E273E0CE018C5A9F4F0E949A4363E2EC
:1045D00073E0CE01865A9F4F0E949A4363E273E0D4
:1045E000CE01805A9F4F0E949A4363E273E0CE014E
:1045F0008A599F4F0E949A4363E273E0CE01845927
:104600009F4F0E949A4363E273E0CE018E589F4F02
:104610000E949A4363E273E0CE0188589F4F0E9444
:104620009A4363E273E0CE0182589F4FDF91CF91AE
:104630000C949A4385E890E10E94893C85E890E1DA
:104640000E94D53A882399F040E06AE670E185E857
:1046500090E10E94E73A4CE06AE670E185E890E17B
:104660000E94123C60E085E890E10E94F13C82E704
:1046700090E10E94893C82E790E10E94D53A88232C
:1046800099F040E062E670E182E790E10E94E73A4B
:104690004CE062E670E182E790E10E94123C60E04B
:1046A00082E790E10E94F13C40E069E370E181E43F
:1046B00090E10E94E73A49E069E370E181E490E12A
:1046C0000E94123C60E081E490E10C94F13C0E9475
:1046D000C70497FD09C06093350E7093360E809322
:1046E000370E9093380E11C09B01AC018827992793
:1046F000DC01821B930BA40BB50B8093350E9093BA
:10470000360EA093370EB093380E1092250E1092ED
:10471000260E1092270E1092280E1092120E109252
:10472000130E1092140E1092150E6BED72E083E3CF
:104730009FE00E9462494091350E5091360E609183
:10474000370E7091380E2AE030E083E39FE00C943E
:10475000564A88E40E94A8041092E90D86E10E945E
:10476000A8041092F00D88E10E94A8041092EF0DA9
:104770008DE10E94A8041092ED0D8CE10E94A80426
:104780001092EC0D8BE10E94A8041092EB0D8AE1CF
:104790000E94A8041092EA0D89E40E94A8041092D5
:1047A000EE0D87E10E94A8041092E80D89E10E94B5
:1047B000A8041092E70D089560E087E00E943E4E45
:1047C0001092F10D60E086E00E943E4E60E088E0CD
:1047D0000E943E4E60E08DE20E943E4E60E08DE021
:1047E0000E943E4E60E084E00E943E4E60E08EE219
:1047F0000E943E4E0E9467230E941A230E94A92312
:1048000085E00E9474221092400E82E00E94742281
:1048100010923F0E80E398EF9093180F8093170F3C
:104820009093160F8093150F089526E040E052EC08
:1048300061E070E08BE491E10E94994626E040E05F
:1048400052EC61E070E088E693E10E94994660E0F6
:1048500083E39FE00E943D3663EF72E083E39FE0D5
:104860000E9481496DEF72E083E39FE00E948149DD
:1048700061E087E00E94024E61E086E00E94024E05
:1048800061E088E00E94024E61E08DE20E94024EEB
:1048900061E085E00E94024E61E082E00E94024EEB
:1048A00061E08DE00E94024E61E084E00E94024ED1
:1048B00061E089E20E94024E61E088E20E94024EBD
:1048C00061E086E40E94024E0E94DC2361E089E2FE
:1048D0000C943E4ECF93C1E0C093D10D1092F30DD6
:1048E0000E94D14C28EE33E040E050E00E94145288
:1048F0002093B50D3093B60D4093B70D5093B80D7E
:104900008091C10D9091C20DA091C30DB091C40DC5
:104910008093BD0D9093BE0DA093BF0DB093C00DBD
:104920008091C50D9091C60DA091C70DB091C80D95
:104930008093B90D9093BA0DA093BB0DB093BC0DAD
:1049400087E00E946E4E8093DA0D86E00E946E4EE4
:104950008093D90D88E00E946E4E8093D80D8DE231
:104960000E946E4E8093D70D8091400E8093D50D9E
:1049700080913F0E8093D40D8DE00E946E4E809307
:10498000D30D84E00E946E4E8093D20D60E087E0EC
:104990000E943E4E60E086E00E943E4E60E088E06D
:1049A0000E943E4E60E08DE20E943E4E60E08DE04F
:1049B0000E943E4E60E084E00E943E4E8EE20E94E5
:1049C0006E4E8093D60D60E08EE20E943E4E85E0F2
:1049D0000E9474221092E60D1092400E82E00E9416
:1049E00074221092E50D10923F0E8091F00D8823F5
:1049F00039F0C093E40D86E10E94A8041092F00DF6
:104A00008091EF0D882341F081E08093E30D88E1F0
:104A10000E94A8041092EF0D8091ED0D882341F0C3
:104A200081E08093E20D8DE10E94A8041092ED0DCB
:104A30008091EC0D882341F081E08093E10D8CE1C1
:104A40000E94A8041092EC0D8091EB0D882341F098
:104A500081E08093E00D8BE10E94A8041092EB0DA1
:104A60008091EA0D882341F081E08093DF0D8AE197
:104A70000E94A8041092EA0D8091EE0D882341F067
:104A800081E08093DE0D89E40E94A8041092EE0D6F
:104A90008091E90D882341F081E08093DD0D88E469
:104AA0000E94A8041092E90D8091E80D882341F03E
:104AB00081E08093DC0D87E10E94A8041092E80D4C
:104AC0008091E70D882341F081E08093DB0D89E13F
:104AD0000E94A8041092E70DCF910895CF931092F1
:104AE000D10DC1E0C093F30D0E94D14C28EE33E00C
:104AF00040E050E00E9414528091B50D9091B60DA7
:104B0000281B390BA901330F660B770B8091BD0D64
:104B10009091BE0DA091BF0DB091C00D840F951F57
:104B2000A61FB71F8093C10D9093C20DA093C30D14
:104B3000B093C40D8091B90D9091BA0DA091BB0DA9
:104B4000B091BC0D8093C50D9093C60DA093C70D79
:104B5000B093C80D10921B0E10921A0E8091E40DA6
:104B6000882329F0C093F00D86E10E9472048091A1
:104B7000E30D882331F081E08093EF0D88E10E94FE
:104B800072048091E20D882331F081E08093ED0D75
:104B90008DE10E9472048091E10D882331F081E063
:104BA0008093EC0D8CE10E9472048091E00D8823CB
:104BB00031F081E08093EB0D8BE10E9472048091D3
:104BC000DF0D882331F081E08093EA0D8AE10E94B5
:104BD00072048091DE0D882331F081E08093EE0D28
:104BE00089E40E9472048091DD0D882331F081E018
:104BF0008093E90D88E40E9472048091DC0D882383
:104C000031F081E08093E80D87E10E947204809189
:104C1000DB0D882331F081E08093E70D89E10E946C
:104C200072041092E40D1092E30D1092E20D1092B6
:104C3000E10D1092E00D1092DF0D1092DE0D10923A
:104C4000DD0D1092DC0D1092DB0D6091DA0D87E026
:104C50000E943E4E6091D90D86E00E943E4E6091CA
:104C6000D80D88E00E943E4E6091D70D8DE20E94E3
:104C70003E4E6091D30D8DE00E943E4E6091D20D6C
:104C800084E00E943E4E6091D60D8EE20E943E4E20
:104C90008091D50D811103C060E070E002C06FEF1C
:104CA00070E085E00E94782281E09091D50D91110D
:104CB00001C080E08093E60D8093400E8091D40D7A
:104CC000811103C060E070E002C06FEF70E082E02D
:104CD0000E94782281E09091D40D911101C080E072
:104CE0008093E50D80933F0ECF9108958091F00D54
:104CF000882329F086E10E94A8041092F00D80918B
:104D0000EF0D882329F088E10E94A8041092EF0D8E
:104D10008091ED0D882329F08DE10E94A804109266
:104D2000ED0D8091EC0D882329F08CE10E94A80400
:104D30001092EC0D8091EB0D882329F08BE10E94FD
:104D4000A8041092EB0D8091EA0D882329F08AE1E6
:104D50000E94A8041092EA0D8091EE0D882329F09C
:104D600089E40E94A8041092EE0D8091E90D882339
:104D700029F088E40E94A8041092E90D8091E80DC2
:104D8000882329F087E10E94A8041092E80D809101
:104D9000E70D882329F089E10E94A8041092E70D0D
:104DA00060E087E00E943E4E1092F10D60E086E0E8
:104DB0000E943E4E8091500E81110CC060E088E050
:104DC0000E943E4E60E08DE20E943E4E60E08EE228
:104DD0000E943E4E85E00E94742282E00E9474226E
:104DE0001092E60D1092980D1092400E1092E50D63
:104DF0001092970D10923F0E60E08DE00E943E4EA3
:104E000060E084E00E943E4E8FEF9FEF9093180F7A
:104E10008093170F9093160F8093150F909318029D
:104E2000809317021092F50D1092F40D1092F30D6D
:104E30001092E40D1092E30D1092E20D1092E10D2C
:104E40001092E00D1092DF0D1092DE0D1092DD0D2C
:104E50001092DC0D1092DB0D10921C0E10921B0EA6
:104E600010921A0E08959F92AF92BF92CF92DF9246
:104E7000EF92FF920F931F93CF93DF93C091F10DA9
:104E80008091D60E8093F10D9090F00D9091D70EF9
:104E90009093F00DA090EF0D9091D80E9093EF0DA0
:104EA000B090E80D9091F00E9093E80DC090E70D52
:104EB0009091F10E9093E70DD090ED0D9091DD0E55
:104EC0009093ED0DE090EC0D9091DE0E9093EC0D33
:104ED000F090EB0D9091DF0E9093EB0D0091EA0DA9
:104EE0009091E00E9093EA0D1091EE0D9091E10EED
:104EF0009093EE0DD091E90D9091E30E9093E90D12
:104F0000811106C0CC2321F060E087E00E943E4E74
:104F10008091F00D882319F086E10E94720480913F
:104F2000F00D811105C0992019F086E10E94A804B6
:104F30008091EF0D882319F088E10E94720480911E
:104F4000EF0D811105C0AA2019F088E10E94A80484
:104F50008091E80D882329F0B11003C087E10E94F9
:104F600072048091E80D811105C0BB2019F087E122
:104F70000E94A8048091E70D882329F0C11003C086
:104F800089E10E9472048091E70D811105C0CC2057
:104F900019F089E10E94A8048091EF0E843079F025
:104FA00085E00E9474221092E60D1092400E82E07D
:104FB0000E9474221092E50D10923F0E20C0609165
:104FC000E50E70E082E00E94782281E09091E50E8B
:104FD000911101C080E08093E50D80933F0E6091B8
:104FE000E40E70E085E00E94782281E09091E40E6A
:104FF000911101C080E08093E60D8093400E809176
:10500000ED0D882319F0D11003C01CC0D1101AC0B7
:105010008091EC0D882319F0E11003C013C0E1105A
:1050200011C08091EB0D882319F0F11003C00AC064
:10503000F11008C08091EA0D882319F0011104C015
:1050400001C001110E946E038091EE0D882329F0AA
:10505000111103C089E40E9472048091EE0D811148
:1050600005C0112319F089E40E94A8048091E90D7C
:10507000882329F0D11103C088E40E947204809132
:10508000E90D811105C0DD2319F088E40E94A80410
:105090008091F10D882331F0C11104C061E087E0F7
:1050A0000E943E4E6091FC0D7091FD0D8091FE0DB1
:1050B0009091FF0D0E94CD4F7093120F6093110FCE
:1050C0006091F80D7091F90D8091FA0D9091FB0DA2
:1050D0000E94CD4F7093100F60930F0F6091E60EFA
:1050E0007091E70E8091E80E9091E90E0E940550B4
:1050F00020E030E040E251E40E945B4F2DEC3CECBC
:105100004CEC5DE30E94D24E60931D0E70931E0E18
:1051100080931F0E9093200E8091D90E9091DA0EFD
:105120009093180F8093170F8091DB0E9091DC0EF7
:105130009093160F8093150F8091EF0E843001F13C
:105140006091E40E70E085E00E94782281E0909109
:10515000E40E911101C080E08093E60D8093400E33
:105160006091E50E70E082E00E94782281E09091EB
:10517000E50E911101C080E08093E50D80933F0E14
:105180006FEF70E088E00E94BE4B6FEF70E08DE241
:105190000E94BE4B6FEF70E08EE2DF91CF911F91C6
:1051A0000F91FF90EF90DF90CF90BF90AF909F90C6
:1051B0000C94BE4B1092CD0D1092CE0D1092CF0DCF
:1051C0001092D00D1092C50D1092C60D1092C70D01
:1051D0001092C80D08951092F30D1092D10D0E94F7
:1051E00076260E94DA288FEF9FEF9093180F809316
:1051F000170F9093160F8093150F909318028093BA
:1052000017021092F20D0895CF93DF9300D000D0D3
:10521000CDB7DEB74091CD0D5091CE0D6091CF0D41
:105220007091D00D2AE0CE0101960E94A144BE01EA
:105230006F5F7F4F87E59EE00E940C44CE01019690
:105240000E942C434091080E5091090E60910A0E65
:1052500070910B0E2AE0CE0101960E94CE44BE0151
:105260006F5F7F4F8BE79EE00E940C44CE0101965A
:105270000E942C434091FC0D5091FD0D6091FE0D5C
:105280007091FF0D2AE0CE0101960E94CE44BE012E
:105290006F5F7F4F87E89EE00E940C44CE0101962D
:1052A0000E942C434091040E5091050E6091060E11
:1052B0007091070E2AE0CE0101960E94CE44BE01F5
:1052C0006F5F7F4F81E89EE00E940C44CE01019603
:1052D0000E942C434091F80D5091F90D6091FA0D08
:1052E0007091FB0D2AE0CE0101960E94CE44BE01D2
:1052F0006F5F7F4F8DE89EE00E940C44CE010196C7
:105300000E942C434091000E5091010E6091020EBC
:105310007091030E2AE0CE0101960E94CE44BE0198
:105320006F5F7F4F8FEC9EE00E940C44CE01019690
:105330000E942C434091C50D5091C60D6091C70D40
:105340007091C80D141615061606170694F580916F
:10535000F30D882371F12AE0CE0101960E94A14449
:10536000BE016F5F7F4F8DE59EE00E940C44CE0131
:1053700001960E942C436091F60D7091F70D80917B
:10538000C50D9091C60D681B790B77FF02C060E0D8
:1053900070E04AE0CE0101960E947544BE016F5F45
:1053A0007F4F83E69EE00E940C44CE0101960E944E
:1053B0002C4326960FB6F894DEBF0FBECDBFDF910B
:1053C000CF910895CF93DF93EC0180916D0E909172
:1053D0006E0E892B31F063EB72E089E69EE00E944D
:1053E0006345BE0189E69EE0DF91CF910C945C4558
:1053F000CF92DF92EF92FF92CF93DF9300D000D055
:10540000CDB7DEB785E890E10E94D53A882309F44C
:105410005DC085E890E10E94603D6AE670E185E844
:1054200090E10E94213E6B017C016093080E709315
:10543000090E80930A0E90930B0E20E030E0A90134
:105440000E94564F882351F020E030E04EEF52EC9E
:10545000C701B6010E94564F81110FC080910D0EF9
:105460008F5F8E3118F480930D0E07C010920D0ED1
:105470008091F30D81110E946A2420911F0F3091B9
:10548000200F4091210F5091220F6091080E7091D2
:10549000090E80910A0E90910B0E0E94D34E20E0CF
:1054A00030E040E251E40E944B510E94CD4F072E64
:1054B000000C880B990B0E9405506093FC0D7093B3
:1054C000FD0D8093FE0D9093FF0D0EC063E173E020
:1054D000CE0101960E949A43CE0101960E94E229D4
:1054E000CE0101960E942C4382E790E10E94D53ABA
:1054F000882309F45DC082E790E10E94603D62E686
:1055000070E182E790E10E94213E6B017C01609393
:10551000040E7093050E8093060E9093070E20E004
:1055200030E0A9010E94564F882351F020E030E07E
:105530004EEF52ECC701B6010E94564F81110FC0C9
:1055400080910C0E8F5F8E3118F480930C0E07C083
:1055500010920C0E8091F30D81110E946A2420910B
:105560001B0F30911C0F40911D0F50911E0F609129
:10557000040E7091050E8091060E9091070E0E9408
:10558000D34E20E030E040E251E40E944B510E94B3
:10559000CD4F072E000C880B990B0E94055060938D
:1055A000F80D7093F90D8093FA0D9093FB0D0EC0DA
:1055B00068E173E0CE0101960E949A43CE01019604
:1055C0000E94E229CE0101960E942C4381E490E1E1
:1055D0000E94603D69E370E181E490E10E94213E18
:1055E0006093000E7093010E8093020E9093030E51
:1055F00026960FB6F894DEBF0FBECDBFDF91CF91D8
:10560000FF90EF90DF90CF900895CF93DF9300D07D
:1056100000D0CDB7DEB78091F20E8093D50E909179
:10562000F30E9093D60E8091F40E8093D70E809156
:10563000F50E8093D80E2091F60E3091F70E309330
:10564000DA0E2093D90E2091F80E3091F90E309396
:10565000DC0E2093DB0E8091FA0E8093DD0E80919C
:10566000FB0E8093DE0E8091FC0E8093DF0E809106
:10567000FD0E8093E00E8091FE0E8093E10E8091EE
:10568000FF0E8093E20E8091000F8093E30E8091D5
:10569000010F8093E40E8091020F8093E50E4091FC
:1056A000030F5091040F6091050F7091060F409306
:1056B000E60E5093E70E6093E80E7093E90E40916A
:1056C000070F5091080F6091090F70910A0F4093D6
:1056D000EA0E5093EB0E6093EC0E7093ED0E8091FA
:1056E0000B0F8093EE0E80910C0F8093EF0E809144
:1056F0000D0F8093F00E80910E0F8093F10E81E0DC
:10570000892780931C0E8823B1F068EE73E080E057
:1057100090E00E94024D8091310E9091320EA09146
:10572000330EB091340E8093350E9093360EA093C5
:10573000370EB093380E81E08093F20D8091F40D16
:105740009091F50D01969093F50D8093F40D6DE118
:1057500073E0CE0101960E949A43CE0101960E9409
:10576000E229CE0101960E942C4326960FB6F894AA
:10577000DEBF0FBECDBFDF91CF910895CF93DF93F2
:10578000CDB7DEB72C970FB6F894DEBF0FBECDBFF6
:1057900063E273E0CE0107960E949A4361E57EE0E2
:1057A000CE0101960E94034462E273E0CE010196AD
:1057B0000E948545BC01CE0107960E945C45CE0142
:1057C00001960E942C4367E57EE0CE0101960E947F
:1057D000034462E273E0CE0101960E948545BC015C
:1057E000CE0107960E945C45CE0101960E942C4393
:1057F0006DE57EE0CE0101960E94034462E273E013
:10580000CE0101960E948545BC01CE0107960E94FB
:105810005C45CE0101960E942C4363E67EE0CE01FA
:1058200001960E94034462E273E0CE0101960E9459
:105830008545BC01CE0107960E945C45CE010196CC
:105840000E942C4369E67EE0CE0101960E9403444B
:1058500062E273E0CE0101960E948545BC01CE0153
:1058600007960E945C45CE0101960E942C436FE68C
:105870007EE0CE0101960E94034462E273E0CE0115
:1058800001960E948545BC01CE0107960E945C45A9
:10589000CE0101960E942C4365E77EE0CE01019681
:1058A0000E94034462E273E0CE0101960E948545A6
:1058B000BC01CE0107960E945C45CE0101960E9474
:1058C0002C436BE77EE0CE0101960E94034462E226
:1058D00073E0CE0101960E948545BC01CE0107967A
:1058E0000E945C45CE0101960E942C4361E87EE057
:1058F000CE0101960E94034462E273E0CE0101965C
:105900000E948545BC01CE0107960E945C45CE01F0
:1059100001960E942C4367E87EE0CE0101960E942A
:10592000034462E273E0CE0101960E948545BC010A
:10593000CE0107960E945C45CE0101960E942C4341
:105940006DE87EE0CE0101960E94034462E273E0BE
:10595000CE0101960E948545BC01CE0107960E94AA
:105960005C45CE0101960E942C4363E97EE0CE01A6
:1059700001960E94034462E273E0CE0101960E9408
:105980008545BC01CE0107960E945C45CE0101967B
:105990000E942C4369E97EE0CE0101960E940344F7
:1059A00062E273E0CE0101960E948545BC01CE0102
:1059B00007960E945C45CE0101960E942C436FE938
:1059C0007EE0CE0101960E94034462E273E0CE01C4
:1059D00001960E948545BC01CE0107960E945C4558
:1059E000CE0101960E942C4365EA7EE0CE0101962D
:1059F0000E94034462E273E0CE0101960E94854555
:105A0000BC01CE0107960E945C45CE0101960E9422
:105A10002C436BEA7EE0CE0101960E94034462E2D1
:105A200073E0CE0101960E948545BC01CE01079628
:105A30000E945C45CE0101960E942C4361EB7EE002
:105A4000CE0101960E94034462E273E0CE0101960A
:105A50000E948545BC01CE0107960E945C45CE019F
:105A600001960E942C4367EB7EE0CE0101960E94D6
:105A7000034462E273E0CE0101960E948545BC01B9
:105A8000CE0107960E945C45CE0101960E942C43F0
:105A90006DEB7EE0CE0101960E94034462E273E06A
:105AA000CE0101960E948545BC01CE0107960E9459
:105AB0005C45CE0101960E942C4363EC7EE0CE0152
:105AC00001960E94034462E273E0CE0101960E94B7
:105AD0008545BC01CE0107960E945C45CE0101962A
