:100000000C94D8020C9409030C9409030C94090372
:100010000C9409030C9409030C9409030C94090330
:100020000C9409030C9409030C9409030C94090320
:100030000C9409030C9409030C9409030C94090310
:100040000C9409030C94E23F0C9409030C940903EB
:100050000C9409030C9409030C9409030C946E4F3F
:100060000C9409030C94E8440C941D450C9409036A
:100070000C9409030C9409030C9409030C940903D0
:100080000C9410400C9409030C9409030C9409037C
:100090000C947E450C94B3450C9409030C9409030D
:1000A0000C9409030C9409030C943E400C9409032E
:1000B0000C9409030C9409030C9409030C946C40F0
:1000C0000C9409030C9409030C9409030C94090380
:1000D0000C9409030C9409030C9409030C94090370
:1000E0000C940903CE4ED34ED84EE24EEC4E654FE3
:1000F000F64EFE4E064F104F1A4F244F334F3D4FD2
:10010000654F474F514F5B4FAE50B150A050A45078
:10011000AA50E850B550B950BF50C350C750CD5049
:10012000D150D550E850DB50DF50E35008000000BC
:10013000BE922449123EABAAAA2ABECDCCCC4C3EDC
:1001400000000080BEABAAAAAA3E00000000BF00CB
:100150000000803F0000000000084178D3BB4387C7
:10016000D1133D190E3CC3BD4282AD2B3E68EC82DB
:1001700076BED98FE1A93E4C80EFFFBE01C4FF7F60
:100180003F00000000000C94FA130C94D34E0C9422
:10019000514F0C94B7370C940C370C94B5500C9409
:1001A0009C480C94FB4B0C94C3360C94474F0C9416
:1001B000C4360C94654F0C94FE4E0C94A0500C94D5
:1001C000AA500C94DD450C94BC360C94AF480C94AA
:1001D000E24E0C943D490C94244F0C94BF480C946F
:1001E000064F0C94F64E0C94D5500C94E7450C94A5
:1001F000AE500C94B9500C943D4F0C94B1500C94EB
:1002000087480C94DB500C941A4F0C948F3B0C9441
:10021000D9370C94E8500C945B4F0C94CD500C944F
:10022000C0360C9414460C94C3370C94B4380C9418
:100230008E480C9447450C94334F0C94C3500C9447
:10024000D84E0C94104F0C94EA370C941B490C9424
:1002500051450C94A4500C94BF500C94D1500C9464
:1002600093360C94CE4E0C94C7500C94EC4E0C94D8
:10027000DF500C94E350005EBCE2613FDD83C29C22
:100280007E20A3FD1F419DC3217FFCA2401E5F0174
:10029000E3BD3E6082DC237D9FC1421CFEA0E1BF26
:1002A0005D0380DE3C62BEE0025CDF81633D7C2258
:1002B000C09E1D43A1FF4618FAA427799BC584DA86
:1002C0003866E5BB5907DB856739BAE40658194734
:1002D000A5FB7826C49A653BD987045AB8E6A7F9E6
:1002E0001B45C6987A24F8A6441A99C7257B3A6418
:1002F00086D85B05E7B98CD2306EEDB3510F4E1046
:10030000F2AC2F7193CD114FADF3702ECC92D38DF3
:100310006F31B2EC0E50AFF1134DCE90722C6D33A5
:10032000D18F0C52B0EE326C8ED0530DEFB1F0AED7
:100330004C1291CF2D73CA947628ABF51749085605
:10034000B4EA6937D58B5709EBB536688AD495CBB3
:100350002977F4AA4816E9B7550B88D6346A2B7565
:1003600097C94A14F6A8742AC896154BA9F7B6E897
:100370000A54D7896B3500000A0B02090C0D0E08D0
:10038000070304010000000000000000000000005E
:10039000000000000000000000000000000000005D
:1003A000000012111000000000000000000000001A
:1003B000000000000000000000000000000000003D
:1003C00000000001021020200808102040102040EA
:1003D0008002010201080402010102040810204009
:1003E0008080402010080402018004020180402027
:1003F0001008040201080402010102040810204050
:10040000800102040810204080040820400480106D
:1004100005050505070508080808020202020A0A80
:10042000080804040404010101010101010103039E
:10043000030303030303040707070C0C0C0C0C0C49
:100440000C0C0202020206060606060606060B0B46
:100450000B0B0B0B0B0B0A0A0A0A05080A000020FB
:10046000002300260029002C002F0032000001008C
:100470000003010601090100002200250028002BCD
:10048000002E003100340002010000050108010BBC
:100490000100002100240027002A002D0030003335
:1004A0000001010000040107010A0100407A10F375
:1004B0005A00A0724E18090010A5D4E80000E87692
:1004C00048170000E40B54020000CA9A3B000000E9
:1004D000E1F505000080969800000040420F000002
:1004E00000A08601000000102700000000E80300C3
:1004F0000000006400000000000A0000000000018D
:1005000000000000002C76D888DC674F0823DFC18C
:10051000DFAE59E1B1B796E5E3E453C63AE6519947
:100520007696E8E6C28426EB898C9B62ED407C6F70
:10053000FCEFBC9C9F40F2BAA56FA5F490055A2A27
:10054000F75C936B6CF9676DC11BFCE0E40D47FE33
:10055000F520E6B500D0ED902E0300943577050028
:1005600080841E080000204E0A000000C80C3333AF
:1005700033330F986E12831141EF8D2114893BE6BE
:100580005516CFFEE6DB18D1844B381BF77C1D9047
:100590001DA4BBE424203284725E228100C9F124B0
:1005A000ECA1E53D2700FA1393365145E745BC36EB
:1005B00011241FBECFEFD1E2DEBFCDBF00E00CBFE4
:1005C00016E0A0E0B2E0E8EFF4EB00E00BBF02C001
:1005D00007900D92A031B107D9F726E1A0E1B6E06E
:1005E00001C01D92AF30B207E1F712E0C7EDD2E0D3
:1005F00000E006C021970109802FFE010E940155ED
:10060000C33DD10780E00807A9F70E94714E0C9402
:100610006A5A0C940000CF92DF92EF92FF920F93F0
:100620001F93CF93DF93EC010E94B84F6B017C01C5
:10063000CE0164E670E00E94AC548B01C0E0D0E0D3
:100640000E94B84FDC01CB018C199D09AE09BF098E
:1006500084369105A105B10598F30E946A2E0E9487
:10066000B84F6B017C012196C017D1074CF3DF9185
:10067000CF911F910F91FF90EF90DF90CF90089551
:100680001F93CF93DF93182FEB0177FF02C0C0E0D9
:10069000D0E061E08DE00E942551612F70E08DEA8D
:1006A0009FE00E946441BE01C937D10514F068E79C
:1006B00070E08DEA9FE00E94AD418EEE92E00E94D4
:1006C0000B038DEA9FE00E946A4160E08DE0DF91BC
:1006D000CF911F910C9425518091710E2091750E30
:1006E000811108C08091D40E811104C08091730FD4
:1006F000843049F5211103C068E770E002C060E072
:1007000070E08AE10E9440038091740E811103C061
:1007100068E770E002C060E070E08DE10E94400395
:100720008091730E811103C068E770E002C060E041
:1007300070E089E10E9440038091720E882391F15C
:1007400060E070E031C0822F90E05091740E511142
:1007500001964091730E411101963091720E311144
:1007600001968230910509F442C02CF4009759F0AB
:100770000197E1F008958330910509F459C0049779
:1007800009F47AC0089568E770E08AE10E944003A6
:1007900068E770E08DE10E94400368E770E089E15E
:1007A0000E94400368E770E08BE198C0211102C00D
:1007B00068E701C067E36093C20E511102C088E789
:1007C00001C087E38093C10E411102C088E701C0D8
:1007D00087E38093C00E311102C088E701C087E330
:1007E0008093BF0E87E38093BE0E8DE241C021113E
:1007F00002C068E701C062E36093C20E511102C0FB
:1008000088E701C082E38093C10E411102C088E7EE
:1008100001C082E38093C00E311102C088E701C09D
:1008200082E38093BF0E82E38093BE0E87E320C0F5
:10083000211102C068E701C067E36093C20E511145
:1008400002C088E701C087E38093C10E411102C056
:1008500088E701C087E38093C00E311102C088E7AA
:1008600001C087E38093BF0E87E38093BE0E88E7C5
:100870008093BD0E70E013C088E28093C20E8DE2BB
:100880008093C10E82E38093C00E97E39093BF0ED6
:100890008093BE0E88E78093BD0E68E270E08AE127
:1008A0000E9440036091C10E70E08DE10E94400300
:1008B0006091C00E70E089E10E9440036091BF0E1C
:1008C00070E08BE10E9440036091BE0E70E087E40F
:1008D0000E9440036091BD0E70E084E20C944003DE
:1008E000CF93DF93D82F8091D40E811110C08091C7
:1008F0009D0F843061F0D63451F48091700E8823BE
:1009000031F080916F0E882311F0C6E401C0C4E17C
:1009100061E08DE00E9425516D2F70E08DEA9FE02F
:100920000E9464416C2F70E08DEA9FE00E94AD410F
:100930008EEE92E00E940B038DEA9FE00E946A41D6
:1009400060E08DE0DF91CF910C942551CF93C82FBB
:1009500061E08DE00E9425516C2F70E08DEA9FE0F0
:100960000E94644168E770E08DEA9FE00E94AD411B
:100970008EEE92E00E940B038DEA9FE00E946A4196
:1009800060E08DE0CF910C94255180911B029091F5
:100990001C02181619060CF046C08FE991E10E945E
:1009A000094260911B0270911C0242E050E08FE905
:1009B00091E10E945244811129C08FE991E10E9486
:1009C0002A42823019F510929D0E10929C0E8FE9EA
:1009D00091E10E942D4210929C0E80939D0E8FE912
:1009E00091E10E942D4220919C0E30919D0EA90113
:1009F000480F511DCA0150939D0E40939C0E18162E
:100A0000190624F490939B0E80939A0E8FE991E13E
:100A10000E941A4260919A0E70919B0E072E000C54
:100A2000880B990B08956FEF7FEFCB0108954F92DC
:100A30005F926F927F928F929F92AF92BF92CF926E
:100A4000DF92EF92FF92CF93809111068A3010F5DA
:100A50008F5F8093110661E087E10E94255162E378
:100A600072E088EC91E10E94494C4AE050E06091CC
:100A7000110688EC91E1CF91FF90EF90DF90CF903D
:100A8000BF90AF909F908F907F906F905F904F90AE
:100A90000C94634D809110068E31C0F58F5F80936A
:100AA000100664E472E088EC91E10E94494C4AE04F
:100AB00050E06091100688EC91E10E94634D60E087
:100AC00087E10E94255184E20E947004C1E0C09336
:100AD000770E87E40E947004C0936F0E80E20E943C
:100AE0002A23C0936D0EC093C30E8091AD0E9091DA
:100AF000AE0EA091AF0EB091B00E80937B0B909391
:100B00007C0BA0937D0BB0937E0B74C1C090AD0E97
:100B1000D090AE0EE090AF0EF090B00E8090A50E8B
:100B20009090A60EA090A70EB090A80EA5019401DB
:100B3000C701B6010E94A25387FD43C060E087E170
:100B40000E9425511092790E81E08093990E20E049
:100B500030E0A90160911D0270911E0280911F0278
:100B6000909120020E94025287FF10C08091800E57
:100B70009091810EA091820EB091830E80931D0200
:100B800090931E02A0931F02B093200210921106B0
:100B90001092100680915A0E81112CC18091D30EB3
:100BA000811128C1CF91FF90EF90DF90CF90BF903F
:100BB000AF909F908F907F906F905F904F900C942C
:100BC000B72B2DEC3CEC4CE45FE3C501B4010E9473
:100BD000F7539B01AC01C701B6010E94A25387FDE8
:100BE000EBC020E030E040E050E4C501B4010E94D9
:100BF0007E519B01AC01C701B6010E94A25387FD43
:100C0000DBC0C501B4010E94AF532B013C01C701F9
:100C1000B6010E94AF534B015C019B01AC01C701BF
:100C2000B6010E94F753A50194010E94F7539B015E
:100C3000AC01C301B2010E940752905820E030E09D
:100C400048EC52E40E94F7530E94EB516B017C0187
:100C500020E030E0A9010E94A25318165CF420E0C5
:100C600030E040E050E4C701B6010E94A2531816DC
:100C70005CF018C020E030E040E050ECC701B60165
:100C80000E94025287FF0EC020E030E0A901C70198
:100C9000B6010E94A253181654F0F7FAF094F7F830
:100CA000F09405C0C12CD12CE12C80E4F82E62E533
:100CB00072E088EC91E10E94494C22E030E0B701FB
:100CC000A60188EC91E10E945C4E67ED75E088EC2E
:100CD00091E10E94494C4AE050E06091130688EC93
:100CE00091E10E945C4D67ED75E088EC91E10E9416
:100CF000494C4AE050E06091120688EC91E10E9474
:100D00005C4D67ED75E088EC91E10E94494C87E10C
:100D10000E9455514AE050E0BC0188EC91E10E94EC
:100D2000264D20E030E040E051E4C701B6010E94CA
:100D3000025287FF3CC080911306883040F08091BA
:100D40001206803220F01092130610921206609163
:100D5000130670E080E090E00E94B1524B015C010C
:100D6000A701960160E070E080E091E40E947E516E
:100D70009B01AC01C501B4010E94A25387FD05C0CF
:100D800080911206837061E009F060E087E10E94C3
:100D9000255180911206982F937029F49091130693
:100DA0009F5F909313068F5F8093120623C061E0CC
:100DB00087E10E9425511AC087E10E945551892B75
:100DC000C9F461E087E10E94255184E20E94A604F3
:100DD0001092770E87E40E94A60410926F0E80E2B4
:100DE0000E942E2310926D0E1092C30E10921306C5
:100DF00010921206CF91FF90EF90DF90CF90BF90AE
:100E0000AF909F908F907F906F905F904F900895DC
:100E10002F923F924F925F926F927F928F929F920A
:100E2000AF92BF92CF92DF92EF92FF920F931F93F8
:100E3000CF93DF93CDB7DEB729970FB6F894DEBF17
:100E40000FBECDBF00919B0F10919C0F1016110685
:100E50000CF040C080915A0E81113CC080917C0EF4
:100E600090917D0E18161906F4F46091970F709109
:100E7000980F60177107B9F4072E000C880B990BB7
:100E80000E94B1529B01AC016091840E7091850E5D
:100E90008091860E9091870E0E940252682F661FE5
:100EA0006627661F66C18090840E9090850EA09084
:100EB000860EB090870EB801012E000C880B990B9E
:100EC0000E94B1529B01AC01C501B4010E94A25322
:100ED00087FD0CC060E084E00E94255110926B0BEE
:100EE00010926C0B81E08093100246C1E090950F48
:100EF000F090960FC8018E199F09BC01990F880BBD
:100F0000990B0E94B15220E030E040E251E40E948F
:100F100007522B013C016093660B7093670B809323
:100F2000680B9093690BB701FF0C880B990B0E941B
:100F3000B1529B01AC01C501B4010E947E5120E079
:100F400030E040E251E40E9407526B017C01609363
:100F5000620B7093630B8093640B9093650B2DEC85
:100F60003CEC4CE45FE3C301B2010E94F7539B01E8
:100F7000AC01C701B6010E94A25318160CF0F8C0CC
:100F800020E030E040E85FE3C301B2010E947E51FF
:100F90009B01AC01C701B6010E94A25387FDE8C0C6
:100FA000C301B2010E94AF532B013C01C701B6013E
:100FB0000E94AF534B015C019B01AC01C701B6011C
:100FC0000E94F753A50194010E94F7539B01AC01C5
:100FD000C301B2010E940752905820E030E048EC73
:100FE00052E40E94F7530E94EB516B017C0120E018
:100FF00030E0A9010E94A25326013701181624F0FF
:1010000077FA709477F8709410911002612F70E065
:1010100080E090E00E94B1524B015C019B01AC0169
:10102000C301B2010E94A2531816FCF420E030E084
:10103000A901C701B6010E94A25318165CF420E072
:1010400030E040E051E4C701B6010E94025287FD42
:101050006EC55EC520E030E040E051ECC701B6014E
:101060000E94A25318167CF053C5612F70E080E0F7
:1010700090E00E94AF5220E030E040E051E40E9456
:10108000025287FF45C520E030E0A901C701B60143
:101090000E94A253181624F0F7FAF094F7F8F0948F
:1010A000A5019401C701B6010E94A253181644F08D
:1010B000612F70E080E090E00E94AF526B017C01F4
:1010C000C0925E0BD0925F0BE092600BF092610BCE
:1010D00020E030E040E051E4C701B6010E94025236
:1010E00018160CF445C0A5019401C701B6010E9471
:1010F0000252811111C080916C0B8F5F80936C0B39
:101100008C3350F01F5F1093100210926C0B19304B
:1011100018F088E08093100280916B0B811103C05E
:1011200088E080936B0B60916B0B70E080E090E047
:101130000E94B1524B015C01A701960160E070E092
:1011400080E091E40E947E519B01AC0111E0C50159
:10115000B4010E94A25318160CF010E0612F84E035
:101160000E94255180916B0B815080936B0B04C0C2
:1011700061E084E00E94255184E00E945551892B52
:1011800009F00EC10091990F10919A0F20919E0FB6
:10119000101611060CF0A5C0273009F4A9C08091E3
:1011A000990E811180C08091A20E9091A30E8A3574
:1011B00091050CF0CEC4892B21F460E08AE40E94F2
:1011C000255180916F0E81110DC087E40E9470043B
:1011D00011E010936F0E80E20E942A2310936D0E8F
:1011E0001093C30E8091A20E9091A30E019690933E
:1011F000A30E8093A20E0E943923182F8091A20E75
:101200009091A30E8A359105CCF58091770E8111CE
:1012100006C084E20E94700481E08093770E11235F
:1012200009F497C460E08AE40E9425510E94452594
:1012300066E672E0CE0101960E948346CE010196D9
:101240000E94A62ACE0101960E94154687E40E94BC
:10125000A60410926F0E80E20E942E2310926D0E53
:101260001092C30E84E20E94A6041092770E8AE5C3
:1012700090E09093A30E8093A20E6BC487E40E942B
:10128000A60410926F0E80E20E942E2310926D0E23
:1012900084E20E94A6041092770E81E08093990E5A
:1012A0000E94FC2756C42A3009F453C480915A0E78
:1012B00081114FC4B801110F880B990B0E94B152D4
:1012C0009B01AC016091800E7091810E8091820E25
:1012D0009091830E0E940252682F661F6627661F38
:1012E00050C0273029F080919D0F833009F005C44C
:1012F00080915A0E811101C4F0905D0BF11010C065
:101300006091800E7091810E8091820E9091830E7B
:1013100029870E94795270935A0B6093590B298543
:1013200081E08F0D80935D0B8D3390F080910E02E4
:1013300090910F02181619064CF480915B0B909156
:101340005C0B019690935C0B80935B0B10925D0B92
:1013500080919D0F833031F58091960E8230A9F4F3
:101360008091750E81110CC08091740E811108C09E
:101370008091730E811104C08091720E882329F030
:1013800061E08AE40E942551E4C384E080936A0B03
:1013900080915D0B66E00E94A05461E0943088F378
:1013A00060E0EFCF273009F0D4C38091960E811111
:1013B00020C0B801110F880B990B0E94B1529B01FC
:1013C000AC016091800E7091810E8091820E90919F
:1013D000830E0E94A25387FD06C081E08093960E83
:1013E00086E080936A0B8FEF9FEF90930F028093BC
:1013F0000E0260910E0270910F021616170654F538
:1014000080915B0B90915C0B0C97BCF4072E000C49
:10141000880B990B0E94B1529B01AC016091800E28
:101420007091810E8091820E9091830E0E940252E3
:10143000682F661F6627661F0EC084E080936A0BC4
:1014400080915D0B66E00E94A05461E0943018F03A
:1014500060E001C061E08AE40E9425518091960E0F
:10146000813009F07BC2E0900E02F0900F021E1452
:101470001F043CF480915B0B90915C0B0C970CF477
:101480006DC28091E00A8C3359F4E1EEFAE082817A
:101490009381819391932BE0E735F207C1F703C065
:1014A0008F5F8093E00A7090E00A072D10E0000F34
:1014B000111F0152154F6091800E7091810E809125
:1014C000820E9091830E0E947952F801718360839D
:1014D00031EEC32E3AE0D32E812C912C540110E032
:1014E0001715A1F0F601619171916F01072E000CA3
:1014F000880B990B0E94B1529B01AC01C501B4014C
:101500000E947F514B015C011F5FEACF612F70E0A9
:1015100080E090E00E94AF529B01AC01C501B40194
:101520000E9407524B015C016093D80A7093D90A5C
:101530008093DA0A9093DB0A20E030E040E85FEB2A
:1015400060910A0270910B0280910C0290910D0241
:101550000E940252811108C080920A0290920B02EE
:10156000A0920C02B0920D0220910A0230910B025F
:1015700040910C0250910D02C501B4010E947E51B0
:101580002B013C012DEC3CEC4CE45EEB0E94025242
:1015900018164CF44092D40A5092D50A6092D60A9A
:1015A0007092D70A08C01092D40A1092D50A1092ED
:1015B000D60A1092D70A80920A0290920B02A09249
:1015C0000C02B0920D0280910308843B79F4E4E0B0
:1015D000F8E084819581A681B78181939193A1934D
:1015E000B1932AE0E03DF207A1F703C08F5F80933B
:1015F000030890900308C92CD12CF601EE0FFF1FB1
:10160000EE0FFF1FE050F84F8091D40A9091D50A59
:10161000A091D60AB091D70A80839183A283B38325
:1016200094E0A92E98E0B92E412C512C320100E013
:1016300010E00C151D057CF4F501219131914191CB
:1016400051915F01C301B2010E947F512B013C0106
:101650000F5F1F4FEECF4092DC0A5092DD0A60927E
:10166000DE0A7092DF0A692D70E080E090E00E944F
:10167000AF529B01AC01C301B2010E9407522B0182
:101680003C016093FF0770930008809301089093DA
:10169000020820E030E040E85FEB609106027091C4
:1016A000070280910802909109020E940252811162
:1016B00008C040920602509207026092080270929F
:1016C00009022091060230910702409108025091D0
:1016D0000902C301B2010E947E514B015C0160937B
:1016E000FB077093FC078093FD079093FE074092E1
:1016F00006025092070260920802709209021E14BC
:101700001F045CF001E010E020E030E0A9010E943D
:101710000252882321F000E002C000E010E00093B4
:101720001806109319061E141F0464F401E020E04B
:1017300030E0A901C501B4010E94025218166CF4F0
:1017400000E00BC020E030E0A901C501B4010E9417
:101750000252082F001F0027001F10E010931706E9
:101760000093160680911A06883709F056C0C0907B
:101770001806D09019068BE196E098878F83EF8149
:10178000F8854480558066807780419251926192BD
:101790007192F887EF831E141F047CF03324339476
:1017A000212C20E030E0A901C301B2010E940252C5
:1017B0008111312C832D922D02C080E090E0C80E63
:1017C000D91E1E141F046CF43324339420E030E03F
:1017D000A901C301B2010E94025218166CF4312C07
:1017E0000BC020E030E0A901C301B2010E94025207
:1017F000382E331C3324331C030D111D8F81988523
:10180000875F974009F0BBCFD0921906C0921806A7
:10181000109317060093160603C08F5F80931A0675
:1018200010911A0624E0129FF0011124E95EF94F8D
:1018300080829182A282B38260911606709117060F
:101840006C33710504F5072E000C880B990B0E9470
:10185000B15220E030E044E352E40E94A25387FDFD
:1018600020C06091180670911906072E000C880B95
:10187000990B0E94B15220E030E040EF51E40E9409
:10188000A25387FD0EC0183760F080911406909126
:10189000150601969093150680931406F7FE17C05F
:1018A00005C0109215061092140611C0CD977CF059
:1018B0006091800E7091810E8091820E9091830EC6
:1018C0000E94795270930F0260930E0261C0809162
:1018D00014069091150689379105B4F480915B0B3D
:1018E00090915C0B4F9784F4F7FE52C080914E0E9E
:1018F00090914F0EA091500EB091510E81319E40AB
:10190000A105B1050CF444C010925C0B10925B0B66
:101910008FEF9FEF90930F0280930E021092E00AD8
:101920001092030810921A0680E090E0A0E8BFEB46
:1019300080930A0290930B02A0930C02B0930D02C5
:101940008093060290930702A0930802B0930902C5
:1019500082E08093960E0E94B72B1AC01092E00A84
:101960001092030810921A0680E090E0A0E8BFEB06
:1019700080930A0290930B02A0930C02B0930D0285
:101980008093060290930702A0930802B093090285
:101990004AE050E06091E00A88EC91E10E945C4DE1
:1019A00067ED75E088EC91E10E94494C4091D80ABE
:1019B0005091D90A6091DA0A7091DB0A22E030E096
:1019C00088EC91E10E945C4E67ED75E088EC91E156
:1019D0000E94494C4091D40A5091D50A6091D60A90
:1019E0007091D70A22E030E088EC91E10E945C4ED1
:1019F00067ED75E088EC91E10E94494C4AE050E0C7
:101A00006091030888EC91E10E945C4D67ED75E000
:101A100088EC91E10E94494C4091FF0750910008E9
:101A2000609101087091020822E030E088EC91E1B9
:101A30000E945C4E67ED75E088EC91E10E94494C94
:101A40004091FB075091FC076091FD077091FE07E4
:101A500022E030E088EC91E10E945C4E67ED75E099
:101A600088EC91E10E94494C4AE050E060911A06EE
:101A700088EC91E10E945C4D67ED75E088EC91E1A6
:101A80000E94494C60911606709117064AE050E09A
:101A900088EC91E10E941F4D67ED75E088EC91E1C3
:101AA0000E94494C60911406709115064AE050E07E
:101AB00088EC91E10E941F4D67ED75E088EC91E1A3
:101AC0000E94494C60910E0270910F024AE050E072
:101AD00088EC91E10E941F4D67ED75E088EC91E183
:101AE0000E94494C60915B0B70915C0B4AE050E0A6
:101AF00088EC91E10E94264D2CC060E08AE40E94AF
:101B0000255110925D0B10926A0B1092960E21C017
:101B100080E090E0A0E0B1E480935E0B90935F0BD7
:101B2000A093600BB093610B6C017D01DCCAA50131
:101B30009401C701B6010E94A25318160CF0B8CA4E
:101B4000C0925E0BD0925F0BE092600BF092610B43
:101B5000CACA29960FB6F894DEBF0FBECDBFDF917B
:101B6000CF911F910F91FF90EF90DF90CF90BF909A
:101B7000AF909F908F907F906F905F904F903F902D
:101B80002F9008958F929F92AF92BF92CF92DF9243
:101B9000EF92FF92CF93DF938091980E8F5F8093A7
:101BA000980E6BE672E088EC91E10E94494C4AE0A5
:101BB00050E06091980E88EC91E10E94634D6CE7D3
:101BC00072E088EC91E10E94494C4091A90E50913D
:101BD000AA0E6091AB0E7091AC0E22E030E088EC62
:101BE00091E10E945E4E9091970E8091980E9923FC
:101BF00009F4A4C0833008F4B2C01092980E109279
:101C0000970E20E030E0A9016091A90E7091AA0E14
:101C10008091AB0E9091AC0E0E940252811112C0C5
:101C20006091B50E7091B60E8091B70E9091B80E7E
:101C30000E94B1526093A90E7093AA0E8093AB0ECE
:101C40009093AC0E8090A90E9090AA0EA090AB0E2F
:101C5000B090AC0E6091B50E7091B60E8091B70E3B
:101C60009091B80E0E94B152A50194010E947E513C
:101C70006B017C01A50194010E94075220E030E035
:101C800040E251E40E94F75320E030E040E05FE39F
:101C90000E94F7530E94795225E0269FE001279F7A
:101CA000D00D112469E972E088EC91E10E94494C61
:101CB00022E030E0B701A60188EC91E10E945C4E81
:101CC00067ED75E088EC91E10E94494C4AE050E0F4
:101CD000BE0188EC91E10E94264D20E030E0A90190
:101CE000C701B6010E94A253181634F48C2F8A5BE8
:101CF0008093190284E105C08C2F8C5E80931902B9
:101D000086E48C1B80931A0260911A0270E086E4CC
:101D10000E9440036091190270E084E20E94400337
:101D200082E20E942A23C1E0C0936E0E10926E0BD5
:101D300080E20E942A23C0936D0E11C08F3078F08C
:101D40001092980E81E08093970E82E20E942E23DB
:101D500010926E0E80E20E942E2310926D0EDF9183
:101D6000CF91FF90EF90DF90CF90BF90AF909F907A
:101D70008F900895CF93C82F87E40E94A6041092F5
:101D80006F0E80E20E942E2310926D0E1092C30EF1
:101D900084E20E94A6041092770EC11116C08091B1
:101DA000730F863059F486E40E94A6041092780ED0
:101DB0008CE10E94A6041092700E07C0853029F4B1
:101DC00088E40E94A6041092710E81E08093A40E14
:101DD0001092A30E1092A20E8091B50E9091B60EA5
:101DE000A091B70EB091B80E8093B90E9093BA0E31
:101DF000A093BB0EB093BC0ECF910C94FC278F9296
:101E00009F92AF92BF92CF92DF92EF92FF920F9389
:101E10001F93CF93DF9300D000D0CDB7DEB7809172
:101E2000590F90E090931802809317020E94B84FC8
:101E300028EEC22E23E0D22EE12CF12CA701960130
:101E40000E94C0548091520E9091530EA091540E56
:101E5000B091550E49015A01881A990AAA0ABB0A7B
:101E60008092560E9092570EA092580EB092590E34
:101E70000E94B84FA70196010E94C05480914A0E5B
:101E800090914B0EA0914C0EB0914D0E79018A01AC
:101E9000E81AF90A0A0B1B0BE0924E0EF0924F0E55
:101EA0000093500E1093510E80915A0F882309F41D
:101EB0007EC08091A40E81117AC08091730F8550ED
:101EC000823020F081E08093A40E76C48091A20E2F
:101ED0009091A30E892BB1F460E087E10E94255117
:101EE00084E20E94700411E01093770E87E40E9450
:101EF000700410936F0E80E20E942A2310936D0EDF
:101F00001093C30E8091A20E9091A30E0196909310
:101F1000A30E8093A20E0E943923182F2091A20EA7
:101F20003091A30E8091770E2A3531056CF4811122
:101F300006C084E20E94700481E08093770E112332
:101F400009F43AC481E030C0882329F084E20E9479
:101F5000A6041092770E8091730F8630A9F48091B9
:101F6000780E811106C086E40E94700481E080939F
:101F7000780E8091700E811113C08CE10E94700464
:101F800081E08093700E0CC0853051F48091710E09
:101F9000811106C088E40E94700481E08093710E74
:101FA000112309F409C480E00E94BA0E05C480918F
:101FB0007A0E882309F4CBC00E94B84F28EE33E094
:101FC00040E050E00E94C05420934A0E30934B0EE4
:101FD00040934C0E50934D0E10924E0E10924F0E99
:101FE0001092500E1092510E80916E0F90916F0FC3
:101FF00090937F0E80937E0E80919B0F90919C0F0B
:102000009093980F8093970F0E94FC278091750EF4
:10201000882311F081E011C08091740E882311F0A3
:1020200082E00BC08091730E882311F083E005C01D
:102030008091720E882319F084E0809313028091BE
:10204000720F80939E0F9091730F90939D0F883025
:1020500001F130F4813009F047C010927F0B44C089
:10206000893041F18A3009F03FC081E08093990EB8
:102070001092740B1092730B10926F0B1092700BE6
:102080001092710B1092720B61E088E10E94255151
:102090002BC08091B50E9091B60EA091B70EB09165
:1020A000B80E8093B90E9093BA0EA093BB0EB09366
:1020B000BC0E1AC02091A50E3091A60E4091A70E1D
:1020C0005091A80E6091AD0E7091AE0E8091AF0E42
:1020D0009091B00E0E947E516093A50E7093A60E53
:1020E0008093A70E9093A80E80E090E0A0E8BFEB4D
:1020F0008093A90E9093AA0EA093AB0EB093AC0E52
:1021000080919D0F823001F580916E0E8823E1F061
:102110008091770E8823C1F080916D0E8823A1F005
:102120008091780E882381F01092980E1092970E6D
:102130001092A90E1092AA0E1092AB0E1092AC0E35
:1021400010926E0B10926D0B10927A0E35C3809127
:102150009E0F813009F04EC080917F0B811110C01D
:102160008091AD0E9091AE0EA091AF0EB091B00ED9
:1021700080937B0B90937C0BA0937D0BB0937E0B95
:102180000E94170580917F0B8F5F80937F0B8A35AC
:1021900089F520E030E040E85FE360917B0B7091CF
:1021A0007C0B80917D0B90917E0B0E947F519B0157
:1021B000AC016091AD0E7091AE0E8091AF0E90911A
:1021C000B00E0E94025287FF15C06BEA72E0CE018A
:1021D00001960E948346CE0101960E94A62ACE0156
:1021E00001960E94154610927F0B80917B0E811103
:1021F0000E94452580919E0F8230C9F460919B0F0B
:1022000070919C0F072E000C880B990B0E94B15205
:102210009B01AC016091840E7091850E8091860EB9
:102220009091870E0E94A25387FD35C022C0833053
:10223000A9F46091990F70919A0F072E000C880BEA
:10224000990B0E94B1529B01AC016091800E70917C
:10225000810E8091820E9091830EE4CF843019F428
:102260000E94322304C08530B1F40E9439238823B0
:1022700091F00E94B72B0E94B84F28EE33E040E067
:1022800050E00E94C05420934A0E30934B0E40936E
:102290004C0E50934D0E80919E0F863009F093C1E5
:1022A0008091710E811158C18091750E81110DC000
:1022B0008091740E811141C08091730E81113DC0D7
:1022C0008091720E811139C047C180911302813013
:1022D000A1F580916D0E882381F1809111026091AA
:1022E000C20E04E1809F600D11246093C20E70E065
:1022F0008AE10E944003809111029091120291950F
:1023000081959109909312028093110297FF15C055
:102310008091740E882311F082E00DC08091730EBD
:10232000882311F083E007C08091720E882311F09A
:1023300084E001C085E0809313028091740E8823AD
:1023400091F180911302823071F580916D0E882396
:1023500051F1809111026091C10E14E1819F600DD5
:1023600011246093C10E70E08DE10E9440038091C2
:102370001102909112029195819591099093120208
:102380008093110297FF0FC08091730E882311F084
:1023900083E007C08091720E882311F084E001C0B1
:1023A00085E0809313028091730E882361F1809100
:1023B0001302833041F580916D0E882321F18091C5
:1023C00011026091C00E94E1899F600D1124609309
:1023D000C00E70E089E10E9440038091110290914B
:1023E00012029195819591099093120280931102A6
:1023F00097FF09C08091720E882311F084E001C01C
:1024000085E0809313028091720E882331F18091D0
:102410001302843011F580916D0E8823F1F08091C4
:1024200011026091BF0E04E1809F600D1124609342
:10243000BF0E70E08BE10E944003809111029091E9
:102440001202919581959109909312028093110245
:1024500097FF03C085E080931302809113028530BB
:1024600009F03EC080916D0E8823D1F18091110258
:102470006091BE0E14E1819F600D11246093BE0E29
:1024800070E087E40E944003809111029091120253
:10249000919581959109909312028093110297FF73
:1024A0001FC08091BD0E843B11F086E017C0809163
:1024B000750E882311F081E011C08091740E88237D
:1024C00011F082E00BC08091730E882311F083E03D
:1024D00005C08091720E882319F084E08093130266
:1024E000809113028630C1F580916D0E8823A1F191
:1024F000809111026091BD0E94E1899F600D1124BD
:102500006093BD0E70E084E20E944003809111024E
:102510009091120291958195910990931202809366
:10252000110297FF19C08091750E882311F081E088
:1025300011C08091740E882311F082E00BC080914D
:10254000730E882311F083E005C08091720E8823FA
:1025500019F084E08093130220E030E0A90160913B
:10256000A90E7091AA0E8091AB0E9091AC0E0E94B4
:10257000A25387FF0E94C20D40914E0E50914F0E04
:102580006091500E7091510E80916E0F90916F0F6F
:10259000A091700FB091710F481759076A077B0718
:1025A00094F00E94B72B0E94B84F28EE33E040E031
:1025B00050E00E94C05420934A0E30934B0E40933B
:1025C0004C0E50934D0E80919E0F8930C9F420918E
:1025D000A50E3091A60E4091A70E5091A80E6091C5
:1025E000AD0E7091AE0E8091AF0E9091B00E0E9424
:1025F000025287FDDFC00E9439238111DBC0DCC09D
:102600008830C9F440914E0E50914F0E6091500E9B
:102610007091510E80916E0F90916F0FA091700F7D
:10262000B091710F481759076A077B070CF4C4C0B3
:102630000E944327C1C08A3009F0BEC08091790B47
:1026400090917A0B97FD54C0009781F44091800ED1
:102650005091810E6091820E7091830E4093750BA4
:102660005093760B6093770B7093780B0196909351
:102670007A0B8093790B4E97DCF120E030E040EA52
:1026800050E46091750B7091760B8091770B90916F
:10269000780B0E947E519B01AC016091800E70917D
:1026A000810E8091820E9091830E0E94A25387FD2D
:1026B00019C060EB72E0CE0101960E948346CE0104
:1026C00001960E94A62ACE0101960E9415461092FC
:1026D0007A0B1092790B80917B0E882349F00E942F
:1026E000452506C08FEF9FEF90937A0B8093790B6F
:1026F000C090800ED090810EE090820EF090830EFC
:102700006091990F70919A0F072E000C880B990B0E
:102710000E94B1529B01AC01C701B6010E94025256
:1027200018168CF58091730B9091740B009741F4FF
:10273000C0926F0BD092700BE092710BF092720B03
:102740000196843B91052CF49093740B8093730B4A
:1027500033C01092740B1092730B20E030E040E213
:1027600051E460916F0B7091700B8091710B90919F
:10277000720B0E947E519B01AC01C701B6010E9401
:10278000A25387FD19C060E088E10E9425510E9494
:10279000B72B0E94B84F28EE33E040E050E00E9493
:1027A000C05420934A0E30934B0E40934C0E5093DE
:1027B0004D0E02C00E94B72B26960FB6F894DEBFCE
:1027C0000FBECDBFDF91CF911F910F91FF90EF9082
:1027D000DF90CF90BF90AF909F908F90089598E03A
:1027E00088E10FB6F894A895809360000FBE90938F
:1027F0006000FFCF80E89CE00C940738CF92DF9216
:10280000EF92FF920F931F93CF93DF93CDB7DEB775
:1028100066970FB6F894DEBF0FBECDBF80E89CE090
:102820000E945139029721F080E89CE00E94EB372A
:1028300088EC91E10E9487481816190694F488ECF8
:1028400091E10E948748AC0160E87BE088EC91E16F
:102850000E94D54B482F60E87BE080E89CE00E9416
:10286000F13880E89CE00E9451398C01823091055A
:1028700011F40C94851F049711F40C94851F80E8C3
:102880009CE00E944C39F82E88EC91E10E941B4993
:1028900064E288EC91E10E943D49602F88EC91E16F
:1028A0000E943D496F2D88EC91E10E943D496AE20A
:1028B00088EC91E10E947A4C88EC91E10E941B49DE
:1028C0000130110511F00C94851F80911402F81647
:1028D00011F40C94851FF092140265E273E0CE01AE
:1028E0000D960E94834680E89CE00E94C337182F13
:1028F000682FCE0101960E941847BE016F5F7F4F7F
:10290000CE010D960E944548CE0101960E941546C3
:10291000103511F00C94811F41E060E070E080E818
:102920009CE00E94C64A8B014AE0CE0101960E94BB
:102930005E47BE016F5F7F4FCE010D960E944548F6
:10294000CE0101960E9415468091510F9091520F31
:10295000892B31F065EB72E08DE49FE00E944C48DA
:10296000BE01635F7F4F8DE49FE00E9445480838B9
:10297000110509F4BEC70CF08DC00937110509F423
:102980006AC70CF043C00137110509F446C71CF5AE
:102990000736110509F407C354F40F34110509F47F
:1029A0001DC20035110509F42DC20C94811F0F368C
:1029B000110509F426C70CF02BC70E36110511F0CE
:1029C0000C94811F61E087E10E94255181E0809392
:1029D000790E0C94811F0537110509F42DC75CF49D
:1029E0000337110509F41EC70CF021C781E080935D
:1029F000770E84E239C70737110509F422C70CF0B6
:102A000025C781E08093740E8DE12EC70038110533
:102A100009F447C71CF50C37110509F428C77CF4E5
:102A20000A37110509F41CC70B37110511F00C9476
:102A3000811F1092720E6DE770E00C946E1D0E37C0
:102A4000110509F41DC70CF024C782E20E942E2351
:102A500010926E0E1092C40E0C94811F0438110552
:102A600009F431C744F40238110509F41DC70CF00C
:102A700022C760E017C70638110509F42BC70CF010
:102A800030C76DE770E088E40E9440031092710E39
:102A90000C94811F063A110511F40C94031E0CF0DE
:102AA000C0C00B39110509F4C3C70CF04BC007397E
:102AB000110509F42DC7B4F40938110509F420C72C
:102AC0000639110511F00C94811F41E060E070E0BF
:102AD00080E89CE00E94C64A70939C0F60939B0F15
:102AE0000C948F1E0939110509F44CC70CF075C7F9
:102AF00041E060E070E080E89CE00E94C64A6B0123
:102B00007C014AE0CE0107960E945E4767ED75E0C2
:102B1000CE0101960E948346BE01695F7F4FCE01C0
:102B200001960E945B48BC018DE49FE00E944548ED
:102B3000CE0101960E941546CE0107960E941546C9
:102B4000B6011EC70F39110509F4F5C784F50D3913
:102B5000110509F49AC70CF0C3C741E060E070E0CA
:102B600080E89CE00E94C64A6B017C014AE0CE01ED
:102B700007960E945E4767ED75E0CE0101960E94C0
:102B80008346BE01695F7F4FCE0101960E945B487C
:102B9000BC018DE49FE00E944548CE0101960E9451
:102BA0001546CE0107960E941546B6016CC7023A3B
:102BB000110509F4EBC7033A110511F40C94F11D4A
:102BC000013A110511F00C94811F41E060E070E0C2
:102BD00080E89CE00E94C64A6B017C014AE0CE017D
:102BE00007960E945E4767ED75E0CE0101960E9450
:102BF0008346BE01695F7F4FCE0101960E945B480C
:102C0000BC018DE49FE00E944548CE0101960E94E0
:102C10001546CE0107960E941546B60189E40C942C
:102C20002D1E0B3C110511F40C94BE1E0CF081C03E
:102C30000A3A110511F40C94881E9CF5083A110506
:102C400011F40C94301E14F00C945B1E41E060E013
:102C500070E080E89CE00E94C64A6B017C014AE07B
:102C6000CE0107960E945E4767ED75E0CE010196A2
:102C70000E948346BE01695F7F4FCE0101960E948C
:102C80005B48BC018DE49FE00E944548CE0101965F
:102C90000E941546CE0107960E941546B60187E4AC
:102CA000DCC7093C110511F40C94AF1E14F00C9410
:102CB000B71E083C110511F00C94811F0E94432798
:102CC00011E010937B0E10925A0E0E94B84F28EE1E
:102CD000C22E23E0D22EE12CF12CA70196010E94F6
:102CE000C0542093520E3093530E4093540E509381
:102CF000550E0E94B84FA70196010E94C054209320
:102D00004A0E30934B0E40934C0E50934D0E109341
:102D10007A0E1092990E80E090E0A0E8BFEB8093CD
:102D20001D0290931E02A0931F02B09320020C94E8
:102D3000811F053883E0180709F448C07CF40D3C76
:102D4000110511F40C94D41E14F40C94C11E043813
:102D5000134011F00C94811F0E94EF13063E83E094
:102D6000180711F40C940C1F073EE3E01E0711F442
:102D70000C94191F0638134011F00C94811F60E069
:102D800086E40E94255160E087E30E94255161E0BE
:102D900088E30E94255160E086E10E94255160E0B1
:102DA00086E30E94255160E082E20E94255160E0A6
:102DB00080E20E94255160E084E00E94255160E09D
:102DC0008AE40E9425516CEB72E002C067EB72E06E
:102DD00080EB9FE00E94684C0C94811F1092D30EF0
:102DE0008091B50E9091B60EA091B70EB091B80E2D
:102DF0008093B90E9093BA0EA093BB0EB093BC0E05
:102E00000C94811F8091AF0D811102C00E9451323C
:102E100080919D0F823011F410929D0F41E060E08F
:102E200070E080E89CE00E943F4B60932D0270931D
:102E30002E0280932F029093300241E060E070E018
:102E400080E89CE00E943F4B6093290270932A0225
:102E500080932B0290932C0241E060E070E080E8C8
:102E60009CE00E943F4B6093A30F7093A40F80934C
:102E7000A50F9093A60F41E060E070E080E89CE031
:102E80000E943F4B60939F0F7093A00F8093A10F00
:102E90009093A20F67ED75E0CE010D960E94014759
:102EA00040912D0250912E0260912F0270913002BC
:102EB0002AE0CE0107960E94B747BE01695F7F4FA7
:102EC000CE0101960E94EC4667ED75E0CE010196B9
:102ED0000E946E48BC01CE010D960E944548CE016D
:102EE00001960E941546CE0107960E941546409114
:102EF000290250912A0260912B0270912C022AE043
:102F0000CE0107960E94B747BE01695F7F4FCE0191
:102F100001960E94EC4667ED75E0CE0101960E9495
:102F20006E48BC01CE010D960E944548CE01019627
:102F30000E941546CE0107960E9415464091A30FA8
:102F40005091A40F6091A50F7091A60F2AE0CE01B9
:102F500007960E94B747BE01695F7F4FCE01019679
:102F60000E94EC4667ED75E0CE0101960E946E4826
:102F7000BC01CE010D960E944548CE0101960E94EB
:102F80001546CE0107960E94154640919F0F50911D
:102F9000A00F6091A10F7091A20F2AE0CE010196BF
:102FA0000E94B7471BC4E0901802E094EE1CEE2488
:102FB000EE1CF12C41E060E070E080E89CE00E94B3
:102FC000C64A8DE18E9D80018F9D100D1124075AF8
:102FD000104FF801608341E060E070E080E89CE021
:102FE0000E94C64A21E0672B682B692B09F420E078
:102FF000F801218341E060E070E080E89CE00E94FD
:10300000C64A2DE12E9DF0012F9DF00D1124E75AA7
:10301000F04F21E0672B682B692B09F420E0228315
:1030200041E060E070E080E89CE00E94C64A2DE14B
:103030002E9DF0012F9DF00D1124E75AF04F21E055
:10304000672B682B692B09F420E0238341E060E0C3
:1030500070E080E89CE00E94C64A2DE12E9D800130
:103060002F9D100D1124075A104FF80175836483AA
:1030700041E060E070E080E89CE00E94C64AF80110
:103080007783668341E060E070E080E89CE00E9426
:10309000C64A21E0672B682B692B09F420E0F80170
:1030A000208741E060E070E080E89CE00E94C64A32
:1030B0002DE12E9DF0012F9DF00D1124E75AF04FC8
:1030C00021E0672B682B692B09F420E0218741E080
:1030D00060E070E080E89CE00E94C64A2DE12E9DF1
:1030E000F0012F9DF00D1124E75AF04F21E0672BDE
:1030F000682B692B09F420E0228741E060E070E052
:1031000080E89CE00E94C64A2DE12E9DF0012F9D93
:10311000F00D1124E75AF04F21E0672B682B692B43
:1031200009F420E0238741E060E070E080E89CE063
:103130000E94C64A2DE12E9DF0012F9DF00D112415
:10314000E75AF04F21E0672B682B692B09F420E048
:10315000248741E060E070E080E89CE00E94C64A7D
:103160008DE18E9D80018F9D100D1124075A104F07
:10317000F801658741E060E070E080E89CE00E9433
:10318000C64A21E0672B682B692B09F420E0F8017F
:10319000268741E060E070E080E89CE00E94C64A3B
:1031A0008DE18E9D80018F9D100D1124075A104FC7
:1031B000F801678741E060E070E080E89CE00E94F1
:1031C000C64AF801608B41E060E070E080E89CE076
:1031D0000E94C64AF801618B728B838B948B41E00D
:1031E00060E070E080E89CE00E94C64AF801658BD0
:1031F000768B878B908F41E060E070E080E89CE008
:103200000E94C64AF801618F41E060E070E080E80A
:103210009CE00E94C64AF801628F41E060E070E0E5
:1032200080E89CE00E94C64A21E0672B682B692B4E
:1032300009F420E0F801238F41E060E070E080E8CD
:103240009CE00E94C64A2DE12E9DF0012F9DF00DBD
:103250001124E75AF04F21E0672B682B692B09F402
:1032600020E0248F67ED75E0CE010D960E940147A6
:103270008DE18E9D80018F9D100D1124075A104FF6
:103280004AE0F8016081CE0107960E943147BE01F5
:10329000695F7F4FCE0101960E94EC4667ED75E0B5
:1032A000CE0101960E946E48BC01CE010D960E948F
:1032B0004548CE0101960E941546CE0107960E9410
:1032C0001546F801618170E04AE0CE0107960E9440
:1032D0005E47BE01695F7F4FCE0101960E94EC46BA
:1032E00067ED75E0CE0101960E946E48BC01CE01EB
:1032F0000D960E944548CE0101960E941546CE01CA
:1033000007960E941546F801628170E04AE0CE01FE
:1033100007960E945E47BE01695F7F4FCE0101960E
:103320000E94EC4667ED75E0CE0101960E946E4862
:10333000BC01CE010D960E944548CE0101960E9427
:103340001546CE0107960E941546F801638170E08C
:103350004AE0CE0107960E945E47BE01695F7F4F3B
:10336000CE0101960E94EC4667ED75E0CE01019614
:103370000E946E48BC01CE010D960E944548CE01C8
:1033800001960E941546CE0107960E941546F80147
:10339000648175814AE0CE0107960E945E47BE01B6
:1033A000695F7F4FCE0101960E94EC4667ED75E0A4
:1033B000CE0101960E946E48BC01CE010D960E947E
:1033C0004548CE0101960E941546CE0107960E94FF
:1033D0001546F801668177814AE0CE0107960E9482
:1033E0005E47BE01695F7F4FCE0101960E94EC46A9
:1033F00067ED75E0CE0101960E946E48BC01CE01DA
:103400000D960E944548CE0101960E941546CE01B8
:1034100007960E941546F801608570E04AE0CE01EB
:1034200007960E945E47BE01695F7F4FCE010196FD
:103430000E94EC4667ED75E0CE0101960E946E4851
:10344000BC01CE010D960E944548CE0101960E9416
:103450001546CE0107960E941546F801618570E079
:103460004AE0CE0107960E945E47BE01695F7F4F2A
:10347000CE0101960E94EC4667ED75E0CE01019603
:103480000E946E48BC01CE010D960E944548CE01B7
:1034900001960E941546CE0107960E941546F80136
:1034A000628570E04AE0CE0107960E945E47BE0149
:1034B000695F7F4FCE0101960E94EC4667ED75E093
:1034C000CE0101960E946E48BC01CE010D960E946D
:1034D0004548CE0101960E941546CE0107960E94EE
:1034E0001546F801638570E04AE0CE0107960E9418
:1034F0005E47BE01695F7F4FCE0101960E94EC4698
:1035000067ED75E0CE0101960E946E48BC01CE01C8
:103510000D960E944548CE0101960E941546CE01A7
:1035200007960E941546F801648570E04AE0CE01D6
:1035300007960E945E47BE01695F7F4FCE010196EC
:103540000E94EC4667ED75E0CE0101960E946E4840
:10355000BC01CE010D960E944548CE0101960E9405
:103560001546CE0107960E9415464AE0F80165858A
:10357000CE0107960E943147BE01695F7F4FCE01A1
:1035800001960E94EC4667ED75E0CE0101960E941F
:103590006E48BC01CE010D960E944548CE010196B1
:1035A0000E941546CE0107960E941546F8016685D1
:1035B00070E04AE0CE0107960E945E47BE01695F57
:1035C0007F4FCE0101960E94EC4667ED75E0CE017B
:1035D00001960E946E48BC01CE010D960E9445489E
:1035E000CE0101960E941546CE0107960E9415460F
:1035F0004AE0F8016785CE0107960E943147BE0177
:10360000695F7F4FCE0101960E94EC4667ED75E041
:10361000CE0101960E946E48BC01CE010D960E941B
:103620004548CE0101960E941546CE0107960E949C
:1036300015464AE0F8016089CE0107960E9431479D
:10364000BE01695F7F4FCE0101960E94EC4667ED97
:1036500075E0CE0101960E946E48BC01CE010D9628
:103660000E944548CE0101960E941546CE0107965C
:103670000E941546F80141895289638974892AE0BC
:10368000CE0107960E948A47BE01695F7F4FCE0137
:1036900001960E94EC4667ED75E0CE0101960E940E
:1036A0006E48BC01CE010D960E944548CE010196A0
:1036B0000E941546CE0107960E941546F8014589DD
:1036C00056896789708D2AE0CE0107960E948A4745
:1036D000BE01695F7F4FCE0101960E94EC4667ED07
:1036E00075E0CE0101960E946E48BC01CE010D9698
:1036F0000E944548CE0101960E941546CE010796CC
:103700000E9415464AE0F801618DCE0107960E949D
:103710003147BE01695F7F4FCE0101960E94EC46A2
:1037200067ED75E0CE0101960E946E48BC01CE01A6
:103730000D960E944548CE0101960E941546CE0185
:1037400007960E9415464AE0F801628DCE01079661
:103750000E943147BE01695F7F4FCE0101960E94F2
:10376000EC4667ED75E0CE0101960E946E48BC0103
:10377000CE010D960E944548CE0101960E94154645
:10378000CE0107960E941546F801638D70E04AE06D
:10379000CE0107960E945E47BE01695F7F4FCE0152
:1037A00001960E94EC4667ED75E0CE0101960E94FD
:1037B0006E48BC01CE010D960E944548CE0101968F
:1037C0000E941546CE0107960E941546F801648DA9
:1037D00070E04AE0CE0101960E945E47BE016F5F35
:1037E0007F4FCE010D960E944548CE0101960E9462
:1037F0001546BE01635F7F4F8DE49FE00E94454800
:1038000080C360E087E10E9425511092790E79C350
:1038100081E08093780E86E427C01092780E6DE7E1
:1038200070E0AEC01092770E6DE770E0D4C081E01A
:103830008093750E8AE118C01092750E6DE770E0E6
:10384000F5C01092740E6DE770E01BC181E08093AB
:10385000730E89E109C01092730E6DE770E013C119
:1038600081E08093720E8BE10E9470044AC382E271
:103870000E942A2381E080936E0E8093C40E41C380
:1038800080E20E942A2381E080936D0E8093C30E14
:1038900038C380E20E942E2310926D0E1092C30E48
:1038A00030C361E088E12BC389E40E94700481E0A9
:1038B0008093760E26C36DE770E089E40E94400392
:1038C0001092760E1EC388E40E94700481E08093FB
:1038D000710E17C38CE10E94700481E08093700E1A
:1038E00010C36DE770E08CE10E9440031092700EEF
:1038F00008C387E40E94700481E080936F0E01C3C7
:103900006DE770E087E40E94400310926F0EF9C2E9
:1039100041E060E070E080E89CE00E94C64A70935D
:103920009A0F6093990F4AE0CE0107960E945E4776
:1039300067ED75E0CE0101960E948346BE01695F86
:103940007F4FCE0101960E945B48BC018DE49FE051
:103950000E944548CE0101960E941546CE01079669
:103960000E9415468091990F90919A0F181619068A
:1039700024F481E08093990EC4C21092990EC1C2C2
:1039800086E46BC141E060E070E080E89CE00E946A
:10399000C64A6B017C014AE0CE0107960E945E4751
:1039A00067ED75E0CE0101960E948346BE01695F16
:1039B0007F4FCE0101960E945B48BC018DE49FE0E1
:1039C0000E944548CE0101960E941546CE010796F9
:1039D0000E941546B60184E240C141E060E070E01B
:1039E00080E89CE00E94C64A6B017C014AE0CE015F
:1039F00007960E945E4767ED75E0CE0101960E9432
:103A00008346BE01695F7F4FCE0101960E945B48ED
:103A1000BC018DE49FE00E944548CE0101960E94C2
:103A20001546CE0107960E941546B6018AE115C1DA
:103A300041E060E070E080E89CE00E94C64A6B01D3
:103A40007C014AE0CE0107960E945E4767ED75E073
:103A5000CE0101960E948346BE01695F7F4FCE0171
:103A600001960E945B48BC018DE49FE00E9445489E
:103A7000CE0101960E941546CE0107960E9415467A
:103A8000B6018DE1EAC089E1E8C041E060E070E0A4
:103A900080E89CE00E94C64A6B017C014AE0CE01AE
:103AA00007960E945E4767ED75E0CE0101960E9481
:103AB0008346BE01695F7F4FCE0101960E945B483D
:103AC000BC018DE49FE00E944548CE0101960E9412
:103AD0001546CE0107960E941546B6018BE1BDC082
:103AE00041E060E070E080E89CE00E94C64A6B0123
:103AF0007C014AE0CE0107960E945E4767ED75E0C3
:103B0000CE0101960E948346BE01695F7F4FCE01C0
:103B100001960E945B48BC018DE49FE00E944548ED
:103B2000CE0101960E941546CE0107960E941546C9
:103B3000B60182E2EAC041E060E070E080E89CE02B
:103B40000E94C64A6B017C014AE0CE0107960E94A2
:103B50005E4767ED75E0CE0101960E948346BE0187
:103B6000695F7F4FCE0101960E945B48BC018DE4E6
:103B70009FE00E944548CE0101960E941546CE0165
:103B800007960E941546B60180E2BFC041E060E0A2
:103B900070E080E89CE00E94C64A6B017C014AE02C
:103BA000CE0107960E945E4767ED75E0CE01019653
:103BB0000E948346BE01695F7F4FCE0101960E943D
:103BC0005B48BC018DE49FE00E944548CE01019610
:103BD0000E941546CE0107960E941546B60188E45C
:103BE0003CC041E060E070E080E89CE00E94C64A92
:103BF0000E94B1526093A50E7093A60E8093A70EFB
:103C00009093A80E7EC141E060E070E080E89CE007
:103C10000E94C64A6B017C014AE0CE0107960E94D1
:103C20005E4767ED75E0CE0101960E948346BE01B6
:103C3000695F7F4FCE0101960E945B48BC018DE415
:103C40009FE00E944548CE0101960E941546CE0194
:103C500007960E941546B6018CE10E94400351C1AF
:103C600041E060E070E080E89CE00E94C64A6B01A1
:103C70007C014AE0CE0107960E945E4767ED75E041
:103C8000CE0101960E948346BE01695F7F4FCE013F
:103C900001960E945B48BC018DE49FE00E9445486C
:103CA000CE0101960E941546CE0107960E94154648
:103CB000B60186E12AC041E060E070E080E89CE067
:103CC0000E94C64A6B017C014AE0CE0107960E9421
:103CD0005E4767ED75E0CE0101960E948346BE0106
:103CE000695F7F4FCE0101960E945B48BC018DE465
:103CF0009FE00E944548CE0101960E941546CE01E4
:103D000007960E941546B60186E30E94A54EF9C0AB
:103D100041E060E070E080E89CE00E94C64A4AE032
:103D2000CE0107960E945E4767ED75E0CE010196D1
:103D30000E948346BE01695F7F4FCE0101960E94BB
:103D40005B48BC018DE49FE00E944548CE0101968E
:103D50000E941546CE0107960E941546D2C080915A
:103D60007B0E882309F4CDC00E944525CAC08091EE
:103D70007B0E8111C6C00E944026C3C00E94AF299D
:103D8000C0C00E94B72B0E94B84F28EE33E040E03D
:103D900050E00E94C05420934A0E30934B0E409343
:103DA0004C0E50934D0EADC041E060E070E080E8F5
:103DB0009CE00E94C64A8B014AE0CE0107960E9411
:103DC0005E4767ED75E0CE0101960E948346BE0115
:103DD000695F7F4FCE0101960E945B48BC018DE474
:103DE0009FE00E944548CE0101960E941546CE01F3
:103DF00007960E94154661E0012B09F460E060938C
:103E0000D40E80917B0E81117CC086E10E942551E9
:103E10006091D40E86E373C041E060E070E080E81A
:103E20009CE00E94C64A21E0672B09F420E0622F43
:103E300065C041E060E070E080E89CE00E94C64A16
:103E400010927B0E10925A0E6B8B7C8B8D8B9E8BFF
:103E50000E9443270E949E2910927A0E1092990E7A
:103E600010929E0F10929D0F6B897C891616170673
:103E70000CF047C086E40E9470041092780E8CE12A
:103E80000E9470041092700E84E20E9470041092DE
:103E9000770E87E40E94700410926F0E8AE10E94F0
:103EA00070041092750E8DE10E9470041092740ED1
:103EB00089E10E9470041092730E8BE10E947004DD
:103EC0001092720E89E40E9470041092760E109285
:103ED000AD0D1092AE0D1092AF0D60E08CE00E941F
:103EE000255160E08BE00E94255160E08BE40E9448
:103EF000255160E08CE20E94255160E08EE10E9435
:103F00002551CE010D960E94154666960FB6F8947F
:103F1000DEBF0FBECDBFDF91CF911F910F91FF90FC
:103F2000EF90DF90CF9008958F929F92AF92BF92C3
:103F3000CF92DF92EF92FF920F931F93CF93DF9375
:103F400000D000D0CDB7DEB780916E0E882309F483
:103F5000E2C080919E0D853089F48091A50D8093FB
:103F6000A40D8091A60D8093A50D8091A70D80933F
:103F7000A60D8091A80D8093A70D03C08F5F80933D
:103F80009E0D60910C0E70910D0E80E090E00E94ED
:103F9000AF526B017C0180910A0E90910B0EBC0117
:103FA00080E090E00E94AF52A70196010E94075264
:103FB0004B015C016093CB0E7093CC0E8093CD0EC1
:103FC0009093CE0E6091060E7091070E8091080EB0
:103FD0009091090E0E94AF52A70196010E940752CC
:103FE0006B017C0160932502709326028093270267
:103FF0009093280220E030E0A9010E94A2531816F5
:104000007CF5A7019601C501B4010E94075220E08A
:1040100030E04AE754E40E94F7536B017C0120E052
:1040200030E0A9010E94A25320E030E040E05FE3CD
:1040300087FD05C0C701B6010E947F5104C0C701BA
:10404000B6010E947E510E9479520E94B15220E036
:1040500030E04AE754E40E9407526B017C0103C040
:10406000C12CD12C760161EC72E088EC91E10E94C8
:10407000494C2AE0B701A601CE0101960E94B7473C
:10408000BE016F5F7F4F88EC91E10E94564CCE01DC
:1040900001960E941546B0909E0D0B2D10E0015028
:1040A00011092FE832EC45EF5CE3C701B6010E942D
:1040B000A25387FD0EC02DEC3CEC4CEC5DE3C70138
:1040C000B6010E94A2538095881F8827881F8F5FA2
:1040D00001C080E0F801EC55F24F808384E08B153D
:1040E000E8F444EA5DE0FA0120E081E09191911169
:1040F00005C02F5F91E0223008F090E0899F802D6D
:1041000011249E2F941B9B1588F3882349F085303A
:1041100048F012E008C010929E0D02C01FEF03C0CD
:1041200010E001C011E08091C40E882309F450C052
:1041300080911602181791F08091980D81110EC090
:1041400080919A0D843038F01093160210929A0DD7
:1041500010929C0D03C08F5F80939A0D8091160280
:10416000813099F18230E1F580919C0D853199F48F
:104170008091960D833018F01092960D13E01092F6
:10418000980D8FEF80939C0D82E20E942A2381E09C
:1041900080936E0E14C0823191F481E08093980D6B
:1041A0008091960D8F5F8093960D80916E0E88237F
:1041B00031F082E20E942E2310926E0E10E0809168
:1041C0009C0D8F5F80939C0D0BC01092960D08C0C4
:1041D0001092980D1092960D10929A0D10929C0DBF
:1041E0008091D40E811122C080919D0F8230F1F018
:1041F0008430E1F08091700E111110C08823B1F06D
:104200008091770E882391F08091710E81110EC0FC
:104210008CE10E94A6041092700E08C0811106C0A5
:104220008CE10E94700481E08093700E812F2696AD
:104230000FB6F894DEBF0FBECDBFDF91CF911F91B7
:104240000F91FF90EF90DF90CF90BF90AF909F9035
:104250008F9008958F929F92AF92BF92CF92DF92EC
:10426000EF92FF920F931F93CF93DF9300D000D074
:10427000CDB7DEB780916D0E882309F4E2C080913E
:104280009D0D853089F48091A00D80939F0D8091C4
:10429000A10D8093A00D8091A20D8093A10D80911E
:1042A000A30D8093A20D03C08F5F80939D0D60913D
:1042B000040E7091050E80E090E00E94AF526B01F9
:1042C0007C018091020E9091030EBC0180E090E091
:1042D0000E94AF52A70196010E9407524B015C0158
:1042E0006093C70E7093C80E8093C90E9093CA0E48
:1042F0006091FE0D7091FF0D8091000E9091010E66
:104300000E94AF52A70196010E9407526B017C01E7
:1043100060932102709322028093230290932402DF
:1043200020E030E0A9010E94A25318167CF5A701F5
:104330009601C501B4010E94075220E030E04AE72F
:1043400054E40E94F7536B017C0120E030E0A901A6
:104350000E94A25320E030E040E05FE387FD05C00B
:10436000C701B6010E947F5104C0C701B6010E9477
:104370007E510E9479520E94B15220E030E04AE71B
:1043800054E40E9407526B017C0103C0C12CD12C64
:1043900076016FEC72E088EC91E10E94494C2AE0D2
:1043A000B701A601CE0101960E94B747BE016F5F1B
:1043B0007F4F88EC91E10E94564CCE0101960E94FD
:1043C0001546B0909D0D0B2D10E0015011092FE8FE
:1043D00032EC45EF5CE3C701B6010E94A25387FDB2
:1043E0000EC02DEC3CEC4CEC5DE3C701B6010E9425
:1043F000A2538095881F8827881F8F5F01C080E0A7
:10440000F801E156F24F808384E08B15E8F44FE920
:104410005DE0FA0120E081E09191911105C02F5FEC
:1044200091E0223008F090E0899F802D11249E2F8A
:10443000941B9B1588F3882349F0853048F012E0DF
:1044400008C010929D0D02C01FEF03C010E001C014
:1044500011E08091C30E882309F450C080911502A9
:10446000181791F08091970D81110EC08091990DD0
:10447000843038F0109315021092990D10929B0D14
:1044800003C08F5F8093990D80911502813099F15F
:104490008230E1F580919B0D853199F48091950DE5
:1044A000833018F01092950D13E01092970D8FEF56
:1044B00080939B0D80E20E942A2381E080936D0E01
:1044C00014C0823191F481E08093970D8091950D15
:1044D0008F5F8093950D80916D0E882331F080E27F
:1044E0000E942E2310926D0E10E080919B0D8F5F25
:1044F00080939B0D0BC01092950D08C01092970DE4
:104500001092950D1092990D10929B0D8091D40EE2
:10451000811122C080919D0F8230F1F08430E1F052
:1045200080916F0E111110C08823B1F08091780E28
:10453000882391F08091710E81110EC087E40E9452
:10454000A60410926F0E08C0811106C087E40E9475
:10455000700481E080936F0E812F26960FB6F89439
:10456000DEBF0FBECDBFDF91CF911F910F91FF90A6
:10457000EF90DF90CF90BF90AF909F908F90089575
:10458000CF92DF92EF92FF921F93CF93DF931F9210
:10459000CDB7DEB7182F7B010E94A54EB701FF0CE7
:1045A000880B990B0E94B15220E030E04FE753E4B2
:1045B0000E94075220E030EC4FE754E40E94F7538A
:1045C0000E9479526B017C011232E9F48091A90DAD
:1045D0009091AA0D8C159D05A1F1C114D10411F47F
:1045E00060E801C060E969830E945444A6016981C2
:1045F00087EA9FE00E94BD440E948A44D092AA0D9F
:10460000C092A90D1EC01032E1F48091AB0D9091C3
:10461000AC0D8C159D05A9F0C114D10411F460E016
:1046200001C060E169830E945444A601698187EA60
:104630009FE00E94BD440E948A44D092AC0DC0927B
:10464000AB0D0F90DF91CF911F91FF90EF90DF9016
:10465000CF9008956FEF70E00C94C02260E070E09E
:104660000C94C02281E09091C60E933009F080E056
:10467000089581E09091C50E933009F080E008958F
:10468000CF93DF93EC0165E273E00E94834665E21D
:1046900073E0CE0106960E94834665E273E0CE0188
:1046A0000C960E94834665E273E0CE0142960E941A
:1046B000834665E273E0CE0148960E94834665E238
:1046C00073E0CE014E960E94834665E273E0CE0110
:1046D00084960E94834665E273E0CE018A960E942A
:1046E000834665E273E0CE01C0960E94834665E290
:1046F00073E0CE01C6960E94834665E273E0CE0168
:10470000CC960E94834665E273E0CE018E5B9F4F9C
:104710000E94834665E273E0CE01885B9F4F0E9452
:10472000834665E273E0CE01825B9F4F0E94834621
:1047300065E273E0CE018C5A9F4F0E94834665E28A
:1047400073E0CE01865A9F4F0E94834665E273E074
:10475000CE01805A9F4F0E94834665E273E0CE01EE
:104760008A599F4F0E94834665E273E0CE018459C7
:104770009F4F0E94834665E273E0CE018E589F4FA3
:104780000E94834665E273E0CE0188589F4F0E94E5
:10479000834665E273E0CE0182589F4FDF91CF914F
:1047A0000C94834660E087E10E9425511092790EB7
:1047B00060E088E10E94255160E086E10E94255179
:1047C00060E086E30E94255160E084E00E9425516C
:1047D00060E08AE40E94255182E20E942E2310921A
:1047E000C40E80E20E942E231092C30E80E398EF45
:1047F00090939C0F80939B0F90939A0F8093990FA7
:10480000089526E040E052EC61E070E088EC91E130
:104810000E94824926E040E052EC61E070E085EEC3
:1048200093E10E94824960E080EB9FE00E9407379D
:104830006DED72E080EB9FE00E94684C67EE72E0E5
:1048400080EB9FE00E94684C61E087E10E94E950A4
:1048500061E088E10E94E95061E086E10E94E95050
:1048600061E086E30E94E95061E082E20E94E95043
:1048700061E080E20E94E95061E084E00E94E9503A
:1048800061E08AE40E94E95061E088E30E94E95017
:1048900061E087E30E94E95061E08DE00E94E95009
:1048A00061E08CE00E94E95061E08BE40E94E950F5
:1048B00061E08BE00E94E95060E086E20E94E950EE
:1048C00061E08CE20E94E95060E083E10E94E950DF
:1048D00061E08EE10E94E95061E089E00E94E950C8
:1048E00060E089E00E9425510E94D22361E088E3C4
:1048F0000C94255189ED90E10E94533D89ED90E1A2
:104900000E949F3B882399F040E06EEB70E189EDB7
:1049100090E10E94B13B4CE06EEB70E189ED90E1DB
:104920000E94DC3C60E089ED90E10E94BB3D86EC9A
:1049300090E10E94533D86EC90E10E949F3B8823CA
:1049400099F040E066EB70E186EC90E10E94B13BAB
:104950004CE066EB70E186EC90E10E94DC3C60E0AC
:1049600086EC90E10C94BB3D08958FE991E10E94A3
:104970001A428FE991E10E9409428FE991E10E9478
:10498000764390931C0280931B0261E08FE991E1D2
:104990000E9422426AEF70E08FE991E10E941D427D
:1049A0000E94C50497FD09C06093B90E7093BA0EBA
:1049B0008093BB0E9093BC0E11C09B01AC01882765
:1049C0009927DC01821B930BA40BB50B8093B90EC6
:1049D0009093BA0EA093BB0EB093BC0E1092AD0E86
:1049E0001092AE0E1092AF0E1092B00E10929E0E5C
:1049F00010929F0E1092A00E1092A10E6DEF72E019
:104A000080EB9FE00E94494C4091B90E5091BA0E44
:104A10006091BB0E7091BC0E2AE030E080EB9FE00D
:104A20000C943D4D88E40E94A6041092710E86E419
:104A30000E94A6041092780E84E20E94A6041092AE
:104A4000770E8AE10E94A6041092750E8DE10E94F5
:104A5000A6041092740E89E10E94A6041092730EAF
:104A60008BE10E94A6041092720E89E40E94A604B3
:104A70001092760E8CE10E94A6041092700E87E4CC
:104A80000E94A60410926F0E0895CF93C1E0C093C8
:104A90005A0E10927B0E0E94B84F28EE33E040E091
:104AA00050E00E94C05420933E0E30933F0E40933E
:104AB000400E5093410E80914A0E90914B0EA09162
:104AC0004C0EB0914D0E8093460E9093470EA093DE
:104AD000480EB093490E80914E0E90914F0EA091CA
:104AE000500EB091510E8093420E9093430EA093BE
:104AF000440EB093450E87E10E9455518093620E9B
:104B000088E10E9455518093610E86E10E945551C3
:104B10008093600E86E30E94555180935F0E8091D2
:104B2000C40E80935E0E8091C30E80935D0E84E070
:104B30000E94555180935C0E8AE40E9455518093E7
:104B40005B0E60E087E10E94255160E088E10E94F1
:104B5000255160E086E10E94255160E086E30E94D5
:104B6000255160E084E00E94255160E08AE40E94C3
:104B7000255182E20E942E2310926E0E1092C40ED6
:104B800080E20E942E2310926D0E1092C30E80912F
:104B9000780E882339F0C0936C0E86E40E94A60438
:104BA0001092780E8091770E882341F081E08093F7
:104BB0006B0E84E20E94A6041092770E8091750E0F
:104BC000882341F081E080936A0E8AE10E94A60466
:104BD0001092750E8091740E882341F081E08093CD
:104BE000690E8DE10E94A6041092740E8091730EDE
:104BF000882341F081E08093680E89E10E94A60439
:104C00001092730E8091720E882341F081E08093A0
:104C1000670E8BE10E94A6041092720E8091760EB0
:104C2000882341F081E08093660E89E40E94A60407
:104C30001092760E8091710E882341F081E080936E
:104C4000650E88E40E94A6041092710E8091700E89
:104C5000882341F081E08093640E8CE10E94A604D9
:104C60001092700E80916F0E882341F081E0809346
:104C7000630E87E40E94A60410926F0ECF910895F0
:104C8000CF9310925A0EC1E0C0937B0E0E94B84F92
:104C900028EE33E040E050E00E94C05480913E0E88
:104CA00090913F0E281B390BA901330F660B770B30
:104CB0008091460E9091470EA091480EB091490EFA
:104CC000840F951FA61FB71F80934A0E90934B0E1B
:104CD000A0934C0EB0934D0E8091420E9091430ED6
:104CE000A091440EB091450E80934E0E90934F0EBE
:104CF000A093500EB093510E1092A30E1092A20EDC
:104D000080916C0E882329F0C093780E86E40E946F
:104D1000700480916B0E882331F081E08093770ED0
:104D200084E20E94700480916A0E882331F081E051
:104D30008093750E8AE10E9470048091690E882329
:104D400031F081E08093740E8DE10E9470048091B7
:104D5000680E882331F081E08093730E89E10E9410
:104D600070048091670E882331F081E08093720E89
:104D70008BE10E9470048091660E882331F081E0FF
:104D80008093760E89E40E9470048091650E8823DA
:104D900031F081E08093710E88E40E94700480916C
:104DA000640E882331F081E08093700E8CE10E94C4
:104DB00070048091630E882331F081E080936F0E40
:104DC00087E40E94700410926C0E10926B0E109289
:104DD0006A0E1092690E1092680E1092670E109271
:104DE000660E1092650E1092640E1092630E609122
:104DF000620E87E10E9425516091610E88E10E9458
:104E000025516091600E86E10E94255160915F0EF0
:104E100086E30E94255160915C0E84E00E9425513A
:104E200060915B0E8AE40E94255180915E0E811193
:104E300003C060E070E002C06FEF70E082E20E94A9
:104E4000C02281E090915E0E911101C080E08093BC
:104E50006E0E8093C40E80915D0E811103C060E0E0
:104E600070E002C06FEF70E080E20E94C02281E03B
:104E700090915D0E911101C080E080936D0E809342
:104E8000C30ECF9108958091780E882329F086E48F
:104E90000E94A6041092780E8091770E882329F044
:104EA00084E20E94A6041092770E8091750E8823EA
:104EB00029F08AE10E94A6041092750E8091740E6A
:104EC000882329F08DE10E94A6041092740E80912F
:104ED000730E882329F089E10E94A6041092730EB4
:104EE0008091720E882329F08BE10E94A604109213
:104EF000720E8091760E882329F089E40E94A60420
:104F00001092760E8091710E882329F088E40E9419
:104F1000A6041092710E8091700E882329F08CE106
:104F20000E94A6041092700E80916F0E882329F0C3
:104F300087E40E94A60410926F0E60E087E10E9451
:104F400025511092790E60E088E10E9425518091F0
:104F5000D40E811108C060E086E10E94255160E016
:104F600086E30E94255182E20E942E2380E20E9465
:104F70002E2310926E0E1092210E1092C40E1092DB
:104F80006D0E1092200E1092C30E60E084E00E941D
:104F9000255160E08AE40E9425518FEF9FEF9093A6
:104FA0009C0F80939B0F90939A0F8093990F9093EF
:104FB00018028093170210927D0E10927C0E1092B0
:104FC0007B0E10926C0E10926B0E10926A0E109265
:104FD000690E1092680E1092670E1092660E109273
:104FE000650E1092640E1092630E1092A40E109231
:104FF000A30E1092A20E08959F92AF92BF92CF92ED
:10500000DF92EF92FF920F931F93CF93DF93C091A4
:10501000790E80915A0F8093790E9090780E90912E
:105020005B0F9093780EA090770E90915C0F909309
:10503000770EB090700E9091740F9093700EC09098
:105040006F0E9091750F90936F0ED090750E90919A
:10505000610F9093750EE090740E9091620F909393
:10506000740EF090730E9091630F9093730E0091F5
:10507000720E9091640F9093720E1091760E909133
:10508000650F9093760ED091710E9091670F90936B
:10509000710E811106C0CC2321F060E087E10E94EF
:1050A00025518091780E882319F086E40E947004BF
:1050B0008091780E811105C0992019F086E40E9434
:1050C000A6048091770E882319F084E20E94700470
:1050D0008091770E811105C0AA2019F084E20E9408
:1050E000A6048091700E882329F0B11003C08CE1D2
:1050F0000E9470048091700E811105C0BB2019F0D0
:105100008CE10E94A60480916F0E882329F0C110C3
:1051100003C087E40E94700480916F0E811105C066
:10512000CC2019F087E40E94A6048091730F84308C
:1051300079F082E20E942E2310926E0E1092C40E1D
:1051400080E20E942E2310926D0E1092C30E20C09A
:105150006091690F70E080E20E94C02281E090912E
:10516000690F911101C080E080936D0E8093C30E92
:105170006091680F70E082E20E94C02281E090910D
:10518000680F911101C080E080936E0E8093C40E71
:105190008091750E882319F0D11003C01CC0D11066
:1051A0001AC08091740E882319F0E11003C013C057
:1051B000E11011C08091730E882319F0F11003C023
:1051C0000AC0F11008C08091720E882319F00111F5
:1051D00004C001C001110E946C038091760E8823E7
:1051E00029F0111103C089E40E9470048091760EA9
:1051F000811105C0112319F089E40E94A604809151
:10520000710E882329F0D11103C088E40E94700434
:105210008091710E811105C0DD2319F088E40E9490
:10522000A6048091790E882331F0C11104C061E099
:1052300087E10E9425516091840E7091850E8091C6
:10524000860E9091870E0E9479527093960F60930C
:10525000950F6091800E7091810E8091820E9091D9
:10526000830E0E9479527093940F6093930F609114
:105270006A0F70916B0F80916C0F90916D0F0E946F
:10528000B15220E030E040E251E40E9407522DECA0
:105290003CEC4CEC5DE30E947E516093A50E709354
:1052A000A60E8093A70E9093A80E80915D0F90910B
:1052B0005E0F90939C0F80939B0F80915F0F909156
:1052C000600F90939A0F8093990F8091730F8430A1
:1052D00001F16091680F70E082E20E94C02281E0DB
:1052E0009091680F911101C080E080936E0E8093C1
:1052F000C40E6091690F70E080E20E94C02281E0DC
:105300009091690F911101C080E080936D0E8093A0
:10531000C30E6FEF70E086E10E94A54E6FEF70E064
:1053200086E3DF91CF911F910F91FF90EF90DF9077
:10533000CF90BF90AF909F900C94A54E1092560EB8
:105340001092570E1092580E1092590E10924E0E47
:1053500010924F0E1092500E1092510E089510920E
:105360007B0E10925A0E0E9443270E949E298FEFB7
:105370009FEF90939C0F80939B0F90939A0F809335
:10538000990F909318028093170210927A0E089545
:10539000CF93DF9300D000D0CDB7DEB74091560E4B
:1053A0005091570E6091580E7091590E2AE0CE011F
:1053B00001960E948A47BE016F5F7F4F8BED9EE092
:1053C0000E94F546CE0101960E9415464091900E2E
:1053D0005091910E6091920E7091930E2AE0CE0141
:1053E00001960E94B747BE016F5F7F4F8FEF9EE02F
:1053F0000E94F546CE0101960E9415464091840E0A
:105400005091850E6091860E7091870E2AE0CE0134
:1054100001960E94B747BE016F5F7F4F8BE09FE010
:105420000E94F546CE0101960E94154640918C0ED1
:1054300050918D0E60918E0E70918F0E2AE0CE01EC
:1054400001960E94B747BE016F5F7F4F85E09FE0E6
:105450000E94F546CE0101960E9415464091800EAD
:105460005091810E6091820E7091830E2AE0CE01E0
:1054700001960E94B747BE016F5F7F4F81E19FE0B9
:105480000E94F546CE0101960E9415464091880E75
:105490005091890E60918A0E70918B0E2AE0CE0198
:1054A00001960E94B747BE016F5F7F4F83E59FE083
:1054B0000E94F546CE0101960E94154640914E0E7F
:1054C00050914F0E6091500E7091510E14161506AA
:1054D0001606170694F580917B0E882371F12AE059
:1054E000CE0101960E948A47BE016F5F7F4F81EE19
:1054F0009EE00E94F546CE0101960E9415466091FD
:105500007E0E70917F0E80914E0E90914F0E681B13
:10551000790B77FF02C060E070E04AE0CE010196AF
:105520000E945E47BE016F5F7F4F87EE9EE00E9444
:10553000F546CE0101960E94154626960FB6F894C0
:10554000DEBF0FBECDBFDF91CF910895CF93DF9324
:10555000EC018091F10E9091F20E892B31F065EB08
:1055600072E08DEE9EE00E944C48BE018DEE9EE002
:10557000DF91CF910C944548CF92DF92EF92FF924A
:10558000CF93DF9300D000D0CDB7DEB789ED90E1A7
:105590000E949F3B882309F45DC089ED90E10E9441
:1055A0002A3E6EEB70E189ED90E10E94EB3E6B01CB
:1055B0007C016093900E7093910E8093920E909365
:1055C000930E20E030E0A9010E940252882351F09E
:1055D00020E030E04EEF52ECC701B6010E940252CB
:1055E00081110FC08091950E8F5F8E3118F48093DA
:1055F000950E07C01092950E80917B0E81110E942E
:1056000045252091A30F3091A40F4091A50F5091F3
:10561000A60F6091900E7091910E8091920E9091D4
:10562000930E0E947F5120E030E040E251E40E945E
:10563000F7530E947952072E000C880B990B0E9499
:10564000B1526093840E7093850E8093860E909372
:10565000870E0EC065E173E0CE0101960E9483467D
:10566000CE0101960E94A62ACE0101960E941546FF
:1056700086EC90E10E949F3B882309F45DC086EC94
:1056800090E10E942A3E66EB70E186EC90E10E9478
:10569000EB3E6B017C0160938C0E70938D0E8093BA
:1056A0008E0E90938F0E20E030E0A9010E940252EE
:1056B000882351F020E030E04EEF52ECC701B601F4
:1056C0000E94025281110FC08091940E8F5F8E3123
:1056D00018F48093940E07C01092940E80917B0E64
:1056E00081110E94452520919F0F3091A00F40917C
:1056F000A10F5091A20F60918C0E70918D0E809130
:105700008E0E90918F0E0E947F5120E030E040E29B
:1057100051E40E94F7530E947952072E000C880B27
:10572000990B0E94B1526093800E7093810E80930A
:10573000820E9093830E0EC06AE173E0CE01019653
:105740000E948346CE0101960E94A62ACE010196B0
:105750000E94154626960FB6F894DEBF0FBECDBF49
:10576000DF91CF91FF90EF90DF90CF900895CF938E
:10577000DF9300D000D0CDB7DEB78091760F809355
:10578000590F9091770F90935A0F8091780F8093D3
:105790005B0F8091790F80935C0F20917A0F30918D
:1057A0007B0F30935E0F20935D0F20917C0F309123
:1057B0007D0F3093600F20935F0F80917E0F809359
:1057C000610F80917F0F8093620F8091800F809393
:1057D000630F8091810F8093640F8091820F80937B
:1057E000650F8091830F8093660F8091840F809363
:1057F000670F8091850F8093680F8091860F80934B
:10580000690F4091870F5091880F6091890F7091B7
:105810008A0F40936A0F50936B0F60936C0F7093D5
:105820006D0F40918B0F50918C0F60918D0F709187
:105830008E0F40936E0F50936F0F6093700F7093A5
:10584000710F80918F0F8093720F8091900F8093D2
:10585000730F8091910F8093740F8091920F8093BA
:10586000750F81E089278093A40E8823B1F068EE3C
:1058700073E080E090E00E94E94F8091B50E909136
:10588000B60EA091B70EB091B80E8093B90E90935A
:10589000BA0EA093BB0EB093BC0E81E080937A0E3B
:1058A00080917C0E90917D0E019690937D0E809359
:1058B0007C0E6FE173E0CE0101960E948346CE011B
:1058C00001960E94A62ACE0101960E9415462696B0
:1058D0000FB6F894DEBF0FBECDBFDF91CF91089514
:1058E000CF93DF93CDB7DEB72C970FB6F894DEBF1A
:1058F0000FBECDBF65E273E0CE0107960E948346DE
:1059000065ED7EE0CE0101960E94EC4664E273E014
:10591000CE0101960E946E48BC01CE0107960E94FE
:105920004548CE0101960E9415466BED7EE0CE0102
:1059300001960E94EC4664E273E0CE0101960E945B
:105940006E48BC01CE0107960E944548CE010196E3
:105950000E94154661EE7EE0CE0101960E94EC4663
:1059600064E273E0CE0101960E946E48BC01CE0154
:1059700007960E944548CE0101960E94154667EEA3
:105980007EE0CE0101960E94EC4664E273E0CE0117
:1059900001960E946E48BC01CE0107960E944548C0
:1059A000CE0101960E9415466DEE7EE0CE01019675
:1059B0000E94EC4664E273E0CE0101960E946E48BC
:1059C000BC01CE0107960E944548CE0101960E9477
:1059D000154663EF7EE0CE0101960E94EC4664E23C
:1059E00073E0CE0101960E946E48BC01CE0107967D
:1059F0000E944548CE0101960E94154669EF7EE05F
:105A0000CE0101960E94EC4664E273E0CE0101965D
:105A10000E946E48BC01CE0107960E944548CE0107
:105A200001960E9415466FEF7EE0CE0101960E941E
:105A3000EC4664E273E0CE0101960E946E48BC0120
:105A4000CE0107960E944548CE0101960E94154658
:105A500065E07FE0CE0101960E94EC4664E273E0CF
:105A6000CE0101960E946E48BC01CE0107960E94AD
:105A70004548CE0101960E9415466BE07FE0CE01BD
:105A800001960E94EC4664E273E0CE0101960E940A
:105A90006E48BC01CE0107960E944548CE01019692
:105AA0000E94154661E17FE0CE0101960E94EC461E
:105AB00064E273E0CE0101960E946E48BC01CE0103
:105AC00007960E944548CE0101960E94154667E15F
:105AD0007FE0CE0101960E94EC4664E273E0CE01C5
